{
  "_format": "hh-sol-artifact-1",
  "contractName": "Controller",
  "sourceName": "contracts/Controller.sol",
  "abi": [
    {
      "inputs": [
        {
          "internalType": "contract IVault",
          "name": "vault",
          "type": "address"
        },
        {
          "internalType": "bytes32",
          "name": "poolId",
          "type": "bytes32"
        }
      ],
      "stateMutability": "nonpayable",
      "type": "constructor"
    },
    {
      "inputs": [
        {
          "internalType": "address",
          "name": "token",
          "type": "address"
        },
        {
          "internalType": "uint256",
          "name": "amount",
          "type": "uint256"
        }
      ],
      "name": "approveVault",
      "outputs": [],
      "stateMutability": "nonpayable",
      "type": "function"
    },
    {
      "inputs": [],
      "name": "getAuthorizer",
      "outputs": [
        {
          "internalType": "contract IAuthorizer",
          "name": "",
          "type": "address"
        }
      ],
      "stateMutability": "view",
      "type": "function"
    },
    {
      "inputs": [],
      "name": "getJoinExitEnabled",
      "outputs": [
        {
          "internalType": "bool",
          "name": "",
          "type": "bool"
        }
      ],
      "stateMutability": "view",
      "type": "function"
    },
    {
      "inputs": [],
      "name": "getPoolId",
      "outputs": [
        {
          "internalType": "bytes32",
          "name": "",
          "type": "bytes32"
        }
      ],
      "stateMutability": "view",
      "type": "function"
    },
    {
      "inputs": [],
      "name": "getPoolSpecialization",
      "outputs": [
        {
          "internalType": "address",
          "name": "",
          "type": "address"
        },
        {
          "internalType": "enum IVault.PoolSpecialization",
          "name": "",
          "type": "uint8"
        }
      ],
      "stateMutability": "view",
      "type": "function"
    },
    {
      "inputs": [],
      "name": "getPoolTokens",
      "outputs": [
        {
          "internalType": "address[]",
          "name": "",
          "type": "address[]"
        },
        {
          "internalType": "uint256[]",
          "name": "",
          "type": "uint256[]"
        },
        {
          "internalType": "uint256",
          "name": "",
          "type": "uint256"
        }
      ],
      "stateMutability": "view",
      "type": "function"
    },
    {
      "inputs": [],
      "name": "getSwapEnabled",
      "outputs": [
        {
          "internalType": "bool",
          "name": "",
          "type": "bool"
        }
      ],
      "stateMutability": "view",
      "type": "function"
    },
    {
      "inputs": [],
      "name": "getVault",
      "outputs": [
        {
          "internalType": "contract IVault",
          "name": "",
          "type": "address"
        }
      ],
      "stateMutability": "view",
      "type": "function"
    },
    {
      "inputs": [
        {
          "internalType": "address[]",
          "name": "PoolTokens",
          "type": "address[]"
        },
        {
          "internalType": "uint256[]",
          "name": "amountsIn",
          "type": "uint256[]"
        }
      ],
      "name": "initPool",
      "outputs": [],
      "stateMutability": "payable",
      "type": "function"
    },
    {
      "inputs": [
        {
          "internalType": "address",
          "name": "sender",
          "type": "address"
        },
        {
          "internalType": "address",
          "name": "recipient",
          "type": "address"
        },
        {
          "components": [
            {
              "internalType": "contract IAsset[]",
              "name": "assets",
              "type": "address[]"
            },
            {
              "internalType": "uint256[]",
              "name": "maxAmountsIn",
              "type": "uint256[]"
            },
            {
              "internalType": "bytes",
              "name": "userData",
              "type": "bytes"
            },
            {
              "internalType": "bool",
              "name": "fromInternalBalance",
              "type": "bool"
            }
          ],
          "internalType": "struct IVault.JoinPoolRequest",
          "name": "request",
          "type": "tuple"
        }
      ],
      "name": "joinPool",
      "outputs": [],
      "stateMutability": "payable",
      "type": "function"
    },
    {
      "inputs": [
        {
          "internalType": "bool",
          "name": "joinExitEnabled",
          "type": "bool"
        }
      ],
      "name": "setJoinExitEnabled",
      "outputs": [],
      "stateMutability": "nonpayable",
      "type": "function"
    },
    {
      "inputs": [
        {
          "internalType": "bool",
          "name": "swapEnabled",
          "type": "bool"
        }
      ],
      "name": "setSwapEnabled",
      "outputs": [],
      "stateMutability": "nonpayable",
      "type": "function"
    },
    {
      "inputs": [
        {
          "internalType": "address",
          "name": "token",
          "type": "address"
        },
        {
          "internalType": "uint256",
          "name": "amount",
          "type": "uint256"
        }
      ],
      "name": "transferToken",
      "outputs": [],
      "stateMutability": "nonpayable",
      "type": "function"
    }
  ],
  "bytecode": "0x60c06040523480156200001157600080fd5b506040516200348f3803806200348f8339818101604052810190620000379190620002a5565b6000801b810362000128573373ffffffffffffffffffffffffffffffffffffffff16635ed312826040518163ffffffff1660e01b8152600401602060405180830381865afa1580156200008e573d6000803e3d6000fd5b505050506040513d601f19601f82011682018060405250810190620000b491906200031d565b73ffffffffffffffffffffffffffffffffffffffff166338fff2d06040518163ffffffff1660e01b8152600401602060405180830381865afa158015620000ff573d6000803e3d6000fd5b505050506040513d601f19601f820116820180604052508101906200012591906200034f565b90505b8173ffffffffffffffffffffffffffffffffffffffff1663f6c00927826040518263ffffffff1660e01b815260040162000163919062000392565b6040805180830381865afa15801562000180573d6000803e3d6000fd5b505050506040513d601f19601f82011682018060405250810190620001a69190620003d7565b50508173ffffffffffffffffffffffffffffffffffffffff1660808173ffffffffffffffffffffffffffffffffffffffff16815250508060a0818152505050506200041e565b600080fd5b600073ffffffffffffffffffffffffffffffffffffffff82169050919050565b60006200021e82620001f1565b9050919050565b6000620002328262000211565b9050919050565b620002448162000225565b81146200025057600080fd5b50565b600081519050620002648162000239565b92915050565b6000819050919050565b6200027f816200026a565b81146200028b57600080fd5b50565b6000815190506200029f8162000274565b92915050565b60008060408385031215620002bf57620002be620001ec565b5b6000620002cf8582860162000253565b9250506020620002e2858286016200028e565b9150509250929050565b620002f78162000211565b81146200030357600080fd5b50565b6000815190506200031781620002ec565b92915050565b600060208284031215620003365762000335620001ec565b5b6000620003468482850162000306565b91505092915050565b600060208284031215620003685762000367620001ec565b5b600062000378848285016200028e565b91505092915050565b6200038c816200026a565b82525050565b6000602082019050620003a9600083018462000381565b92915050565b60038110620003bd57600080fd5b50565b600081519050620003d181620003af565b92915050565b60008060408385031215620003f157620003f0620001ec565b5b6000620004018582860162000306565b92505060206200041485828601620003c0565b9150509250929050565b60805160a051612fc6620004c9600039600081816105f401528181610670015281816106f70152818161086a015281816109a501528181610e17015281816111660152818161124401526113af0152600081816105b8015281816106bb0152818161082e0152818161096901528181610b7701528181610b9f01528181610c7301528181610d4d01528181610ddb0152818161112a0152818161120801526113730152612fc66000f3fe6080604052600436106100c25760003560e01c80638d928af81161007f578063c399a9a411610059578063c399a9a414610239578063d95219f314610265578063de3d2b2d14610281578063e01af92c146102aa576100c2565b80638d928af8146101ba578063aaabadc5146101e5578063b6d2473714610210576100c2565b80631072cbea146100c75780631d6e909e146100f057806338fff2d01461010c57806341e45a201461013757806347bc4d921461016257806389c065681461018d575b600080fd5b3480156100d357600080fd5b506100ee60048036038101906100e99190611a1a565b6102d3565b005b61010a60048036038101906101059190611e77565b610578565b005b34801561011857600080fd5b5061012161066c565b60405161012e9190611eff565b60405180910390f35b34801561014357600080fd5b5061014c610694565b6040516101599190611f29565b60405180910390f35b34801561016e57600080fd5b506101776107ea565b6040516101849190611f29565b60405180910390f35b34801561019957600080fd5b506101a261095d565b6040516101b1939291906120cf565b60405180910390f35b3480156101c657600080fd5b506101cf610b73565b6040516101dc9190612173565b60405180910390f35b3480156101f157600080fd5b506101fa610b9b565b60405161020791906121af565b60405180910390f35b34801561021c57600080fd5b5061023760048036038101906102329190611a1a565b610c31565b005b34801561024557600080fd5b5061024e610dd3565b60405161025c929190612250565b60405180910390f35b61027f600480360381019061027a919061233c565b610ec8565b005b34801561028d57600080fd5b506102a860048036038101906102a391906123b4565b611204565b005b3480156102b657600080fd5b506102d160048036038101906102cc91906123b4565b61136f565b005b6102f5604051806060016040528060318152602001612dd260319139826114db565b610392604051806080016040528060468152602001612f4b604691398373ffffffffffffffffffffffffffffffffffffffff1663dd62ed3e33306040518363ffffffff1660e01b815260040161034c9291906123e1565b602060405180830381865afa158015610369573d6000803e3d6000fd5b505050506040513d601f19601f8201168201806040525081019061038d919061241f565b6114db565b808273ffffffffffffffffffffffffffffffffffffffff1663dd62ed3e33306040518363ffffffff1660e01b81526004016103ce9291906123e1565b602060405180830381865afa1580156103eb573d6000803e3d6000fd5b505050506040513d601f19601f8201168201806040525081019061040f919061241f565b10610535578173ffffffffffffffffffffffffffffffffffffffff166323b872dd3330846040518463ffffffff1660e01b81526004016104519392919061244c565b6020604051808303816000875af1158015610470573d6000803e3d6000fd5b505050506040513d601f19601f820116820180604052508101906104949190612498565b506105306040518060600160405280602e8152602001612ec1602e91398373ffffffffffffffffffffffffffffffffffffffff166370a08231306040518263ffffffff1660e01b81526004016104ea91906124c5565b602060405180830381865afa158015610507573d6000803e3d6000fd5b505050506040513d601f19601f8201168201806040525081019061052b919061241f565b6114db565b610574565b6105736040518060400160405280601781526020017f476574206164646974696f6e6120616c6c6f77616e6365000000000000000000815250611577565b5b5050565b6105b66040518060400160405280601e81526020017f436f6e74726f6c6c6572202d206a6f696e506f6f6c2829207265717573740000815250611577565b7f000000000000000000000000000000000000000000000000000000000000000073ffffffffffffffffffffffffffffffffffffffff1663b95cac287f00000000000000000000000000000000000000000000000000000000000000008585856040518563ffffffff1660e01b8152600401610635949392919061271e565b600060405180830381600087803b15801561064f57600080fd5b505af1158015610663573d6000803e3d6000fd5b50505050505050565b60007f0000000000000000000000000000000000000000000000000000000000000000905090565b60006106b7604051806060016040528060398152602001612eef60399139611577565b60007f000000000000000000000000000000000000000000000000000000000000000073ffffffffffffffffffffffffffffffffffffffff1663f6c009277f00000000000000000000000000000000000000000000000000000000000000006040518263ffffffff1660e01b81526004016107329190611eff565b6040805180830381865afa15801561074e573d6000803e3d6000fd5b505050506040513d601f19601f8201168201806040525081019061077291906127a4565b5090508073ffffffffffffffffffffffffffffffffffffffff166341e45a206040518163ffffffff1660e01b8152600401602060405180830381865afa1580156107c0573d6000803e3d6000fd5b505050506040513d601f19601f820116820180604052508101906107e49190612498565b91505090565b600061082a6040518060400160405280601b81526020017f4d616e6167656420506f6f6c2067657453776170456e61626c65640000000000815250611577565b60007f000000000000000000000000000000000000000000000000000000000000000073ffffffffffffffffffffffffffffffffffffffff1663f6c009277f00000000000000000000000000000000000000000000000000000000000000006040518263ffffffff1660e01b81526004016108a59190611eff565b6040805180830381865afa1580156108c1573d6000803e3d6000fd5b505050506040513d601f19601f820116820180604052508101906108e591906127a4565b5090508073ffffffffffffffffffffffffffffffffffffffff166347bc4d926040518163ffffffff1660e01b8152600401602060405180830381865afa158015610933573d6000803e3d6000fd5b505050506040513d601f19601f820116820180604052508101906109579190612498565b91505090565b606080600060608060007f000000000000000000000000000000000000000000000000000000000000000073ffffffffffffffffffffffffffffffffffffffff1663f94d46687f00000000000000000000000000000000000000000000000000000000000000006040518263ffffffff1660e01b81526004016109e09190611eff565b600060405180830381865afa1580156109fd573d6000803e3d6000fd5b505050506040513d6000823e3d601f19601f82011682018060405250810190610a26919061297c565b8093508194508295505050506000835167ffffffffffffffff811115610a4f57610a4e611a70565b5b604051908082528060200260200182016040528015610a7d5781602001602082028036833780820191505090505b50905060005b8451811015610b6057848181518110610a9f57610a9e612a07565b5b6020026020010151828281518110610aba57610ab9612a07565b5b602002602001019073ffffffffffffffffffffffffffffffffffffffff16908173ffffffffffffffffffffffffffffffffffffffff1681525050610b4d6040518060400160405280601881526020017f676574506f6f6c546f6b656e733a20546f6b656e732025730000000000000000815250838381518110610b4057610b3f612a07565b5b6020026020010151611610565b8080610b5890612a65565b915050610a83565b5080838396509650965050505050909192565b60007f0000000000000000000000000000000000000000000000000000000000000000905090565b60007f000000000000000000000000000000000000000000000000000000000000000073ffffffffffffffffffffffffffffffffffffffff1663aaabadc56040518163ffffffff1660e01b8152600401602060405180830381865afa158015610c08573d6000803e3d6000fd5b505050506040513d601f19601f82011682018060405250810190610c2c9190612aeb565b905090565b610c55604051806060016040528060238152602001612f28602391393330846116ac565b8173ffffffffffffffffffffffffffffffffffffffff1663095ea7b37f0000000000000000000000000000000000000000000000000000000000000000836040518363ffffffff1660e01b8152600401610cb0929190612b18565b6020604051808303816000875af1158015610ccf573d6000803e3d6000fd5b505050506040513d601f19601f82011682018060405250810190610cf39190612498565b50610dcf6040518060400160405280601d81526020017f436f6e74726f6c6c657220416c6c6f77616e6365206f6620746f6b656e000000815250838473ffffffffffffffffffffffffffffffffffffffff1663dd62ed3e307f00000000000000000000000000000000000000000000000000000000000000006040518363ffffffff1660e01b8152600401610d899291906123e1565b602060405180830381865afa158015610da6573d6000803e3d6000fd5b505050506040513d601f19601f82011682018060405250810190610dca919061241f565b61174e565b5050565b6000806000807f000000000000000000000000000000000000000000000000000000000000000073ffffffffffffffffffffffffffffffffffffffff1663f6c009277f00000000000000000000000000000000000000000000000000000000000000006040518263ffffffff1660e01b8152600401610e529190611eff565b6040805180830381865afa158015610e6e573d6000803e3d6000fd5b505050506040513d601f19601f82011682018060405250810190610e9291906127a4565b8092508193505050610ebc604051806060016040528060238152602001612e9e6023913983611610565b81819350935050509091565b6000825167ffffffffffffffff811115610ee557610ee4611a70565b5b604051908082528060200260200182016040528015610f135781602001602082028036833780820191505090505b50905060005b8351811015610f9d57838181518110610f3557610f34612a07565b5b6020026020010151828281518110610f5057610f4f612a07565b5b602002602001019073ffffffffffffffffffffffffffffffffffffffff16908173ffffffffffffffffffffffffffffffffffffffff16815250508080610f9590612a65565b915050610f19565b50600082516001610fae9190612b41565b67ffffffffffffffff811115610fc757610fc6611a70565b5b604051908082528060200260200182016040528015610ff55781602001602082028036833780820191505090505b5090506dfffffffffffffffffffffffca4408160008151811061101b5761101a612a07565b5b60200260200101818152505060005b835181101561108c5783818151811061104657611045612a07565b5b60200260200101518260018361105c9190612b41565b8151811061106d5761106c612a07565b5b602002602001018181525050808061108490612a65565b91505061102a565b5060008081856040516020016110a3929190612b75565b60405160208183030381529060405290506110d5604051806060016040528060398152602001612e0360399139611577565b6110de816117ed565b600060405180608001604052808681526020018581526020018381526020016000151581525090506111286040518060600160405280602e8152602001612e70602e913933611610565b7f000000000000000000000000000000000000000000000000000000000000000073ffffffffffffffffffffffffffffffffffffffff1663b95cac287f00000000000000000000000000000000000000000000000000000000000000003030856040518563ffffffff1660e01b81526004016111a7949392919061271e565b600060405180830381600087803b1580156111c157600080fd5b505af11580156111d5573d6000803e3d6000fd5b505050506111fb604051806060016040528060348152602001612e3c6034913930611610565b50505050505050565b60007f000000000000000000000000000000000000000000000000000000000000000073ffffffffffffffffffffffffffffffffffffffff1663f6c009277f00000000000000000000000000000000000000000000000000000000000000006040518263ffffffff1660e01b815260040161127f9190611eff565b6040805180830381865afa15801561129b573d6000803e3d6000fd5b505050506040513d601f19601f820116820180604052508101906112bf91906127a4565b5090506113006040518060400160405280601f81526020017f4d616e6167656420506f6f6c207365744a6f696e45786974456e61626c656400815250611577565b8073ffffffffffffffffffffffffffffffffffffffff1663de3d2b2d836040518263ffffffff1660e01b81526004016113399190611f29565b600060405180830381600087803b15801561135357600080fd5b505af1158015611367573d6000803e3d6000fd5b505050505050565b60007f000000000000000000000000000000000000000000000000000000000000000073ffffffffffffffffffffffffffffffffffffffff1663f6c009277f00000000000000000000000000000000000000000000000000000000000000006040518263ffffffff1660e01b81526004016113ea9190611eff565b6040805180830381865afa158015611406573d6000803e3d6000fd5b505050506040513d601f19601f8201168201806040525081019061142a91906127a4565b50905061146c6040518060400160405280601e81526020017f4d616e6167656420506f6f6c2073657453776170456e61626c6564203d20000081525083611886565b8073ffffffffffffffffffffffffffffffffffffffff1663e01af92c836040518263ffffffff1660e01b81526004016114a59190611f29565b600060405180830381600087803b1580156114bf57600080fd5b505af11580156114d3573d6000803e3d6000fd5b505050505050565b61157382826040516024016114f1929190612bfa565b6040516020818303038152906040527fb60e72cc000000000000000000000000000000000000000000000000000000007bffffffffffffffffffffffffffffffffffffffffffffffffffffffff19166020820180517bffffffffffffffffffffffffffffffffffffffffffffffffffffffff8381831617835250505050611922565b5050565b61160d8160405160240161158b9190612c2a565b6040516020818303038152906040527f41304fac000000000000000000000000000000000000000000000000000000007bffffffffffffffffffffffffffffffffffffffffffffffffffffffff19166020820180517bffffffffffffffffffffffffffffffffffffffffffffffffffffffff8381831617835250505050611922565b50565b6116a88282604051602401611626929190612c4c565b6040516020818303038152906040527f319af333000000000000000000000000000000000000000000000000000000007bffffffffffffffffffffffffffffffffffffffffffffffffffffffff19166020820180517bffffffffffffffffffffffffffffffffffffffffffffffffffffffff8381831617835250505050611922565b5050565b611748848484846040516024016116c69493929190612c7c565b6040516020818303038152906040527f8ef3f399000000000000000000000000000000000000000000000000000000007bffffffffffffffffffffffffffffffffffffffffffffffffffffffff19166020820180517bffffffffffffffffffffffffffffffffffffffffffffffffffffffff8381831617835250505050611922565b50505050565b6117e883838360405160240161176693929190612cc8565b6040516020818303038152906040527f0d26b925000000000000000000000000000000000000000000000000000000007bffffffffffffffffffffffffffffffffffffffffffffffffffffffff19166020820180517bffffffffffffffffffffffffffffffffffffffffffffffffffffffff8381831617835250505050611922565b505050565b611883816040516024016118019190612d50565b6040516020818303038152906040527f0be77f56000000000000000000000000000000000000000000000000000000007bffffffffffffffffffffffffffffffffffffffffffffffffffffffff19166020820180517bffffffffffffffffffffffffffffffffffffffffffffffffffffffff8381831617835250505050611922565b50565b61191e828260405160240161189c929190612d72565b6040516020818303038152906040527fc3b55635000000000000000000000000000000000000000000000000000000007bffffffffffffffffffffffffffffffffffffffffffffffffffffffff19166020820180517bffffffffffffffffffffffffffffffffffffffffffffffffffffffff8381831617835250505050611922565b5050565b6119398161193161193c61195d565b63ffffffff16565b50565b60006a636f6e736f6c652e6c6f679050600080835160208501845afa505050565b611968819050919050565b611970612da2565b565b6000604051905090565b600080fd5b600080fd5b600073ffffffffffffffffffffffffffffffffffffffff82169050919050565b60006119b182611986565b9050919050565b6119c1816119a6565b81146119cc57600080fd5b50565b6000813590506119de816119b8565b92915050565b6000819050919050565b6119f7816119e4565b8114611a0257600080fd5b50565b600081359050611a14816119ee565b92915050565b60008060408385031215611a3157611a3061197c565b5b6000611a3f858286016119cf565b9250506020611a5085828601611a05565b9150509250929050565b600080fd5b6000601f19601f8301169050919050565b7f4e487b7100000000000000000000000000000000000000000000000000000000600052604160045260246000fd5b611aa882611a5f565b810181811067ffffffffffffffff82111715611ac757611ac6611a70565b5b80604052505050565b6000611ada611972565b9050611ae68282611a9f565b919050565b600080fd5b600080fd5b600067ffffffffffffffff821115611b1057611b0f611a70565b5b602082029050602081019050919050565b600080fd5b6000611b31826119a6565b9050919050565b611b4181611b26565b8114611b4c57600080fd5b50565b600081359050611b5e81611b38565b92915050565b6000611b77611b7284611af5565b611ad0565b90508083825260208201905060208402830185811115611b9a57611b99611b21565b5b835b81811015611bc35780611baf8882611b4f565b845260208401935050602081019050611b9c565b5050509392505050565b600082601f830112611be257611be1611af0565b5b8135611bf2848260208601611b64565b91505092915050565b600067ffffffffffffffff821115611c1657611c15611a70565b5b602082029050602081019050919050565b6000611c3a611c3584611bfb565b611ad0565b90508083825260208201905060208402830185811115611c5d57611c5c611b21565b5b835b81811015611c865780611c728882611a05565b845260208401935050602081019050611c5f565b5050509392505050565b600082601f830112611ca557611ca4611af0565b5b8135611cb5848260208601611c27565b91505092915050565b600080fd5b600067ffffffffffffffff821115611cde57611cdd611a70565b5b611ce782611a5f565b9050602081019050919050565b82818337600083830152505050565b6000611d16611d1184611cc3565b611ad0565b905082815260208101848484011115611d3257611d31611cbe565b5b611d3d848285611cf4565b509392505050565b600082601f830112611d5a57611d59611af0565b5b8135611d6a848260208601611d03565b91505092915050565b60008115159050919050565b611d8881611d73565b8114611d9357600080fd5b50565b600081359050611da581611d7f565b92915050565b600060808284031215611dc157611dc0611a5a565b5b611dcb6080611ad0565b9050600082013567ffffffffffffffff811115611deb57611dea611aeb565b5b611df784828501611bcd565b600083015250602082013567ffffffffffffffff811115611e1b57611e1a611aeb565b5b611e2784828501611c90565b602083015250604082013567ffffffffffffffff811115611e4b57611e4a611aeb565b5b611e5784828501611d45565b6040830152506060611e6b84828501611d96565b60608301525092915050565b600080600060608486031215611e9057611e8f61197c565b5b6000611e9e868287016119cf565b9350506020611eaf868287016119cf565b925050604084013567ffffffffffffffff811115611ed057611ecf611981565b5b611edc86828701611dab565b9150509250925092565b6000819050919050565b611ef981611ee6565b82525050565b6000602082019050611f146000830184611ef0565b92915050565b611f2381611d73565b82525050565b6000602082019050611f3e6000830184611f1a565b92915050565b600081519050919050565b600082825260208201905092915050565b6000819050602082019050919050565b611f79816119a6565b82525050565b6000611f8b8383611f70565b60208301905092915050565b6000602082019050919050565b6000611faf82611f44565b611fb98185611f4f565b9350611fc483611f60565b8060005b83811015611ff5578151611fdc8882611f7f565b9750611fe783611f97565b925050600181019050611fc8565b5085935050505092915050565b600081519050919050565b600082825260208201905092915050565b6000819050602082019050919050565b612037816119e4565b82525050565b6000612049838361202e565b60208301905092915050565b6000602082019050919050565b600061206d82612002565b612077818561200d565b93506120828361201e565b8060005b838110156120b357815161209a888261203d565b97506120a583612055565b925050600181019050612086565b5085935050505092915050565b6120c9816119e4565b82525050565b600060608201905081810360008301526120e98186611fa4565b905081810360208301526120fd8185612062565b905061210c60408301846120c0565b949350505050565b6000819050919050565b600061213961213461212f84611986565b612114565b611986565b9050919050565b600061214b8261211e565b9050919050565b600061215d82612140565b9050919050565b61216d81612152565b82525050565b60006020820190506121886000830184612164565b92915050565b600061219982612140565b9050919050565b6121a98161218e565b82525050565b60006020820190506121c460008301846121a0565b92915050565b6121d3816119a6565b82525050565b7f4e487b7100000000000000000000000000000000000000000000000000000000600052602160045260246000fd5b60038110612219576122186121d9565b5b50565b600081905061222a82612208565b919050565b600061223a8261221c565b9050919050565b61224a8161222f565b82525050565b600060408201905061226560008301856121ca565b6122726020830184612241565b9392505050565b600067ffffffffffffffff82111561229457612293611a70565b5b602082029050602081019050919050565b60006122b86122b384612279565b611ad0565b905080838252602082019050602084028301858111156122db576122da611b21565b5b835b8181101561230457806122f088826119cf565b8452602084019350506020810190506122dd565b5050509392505050565b600082601f83011261232357612322611af0565b5b81356123338482602086016122a5565b91505092915050565b600080604083850312156123535761235261197c565b5b600083013567ffffffffffffffff81111561237157612370611981565b5b61237d8582860161230e565b925050602083013567ffffffffffffffff81111561239e5761239d611981565b5b6123aa85828601611c90565b9150509250929050565b6000602082840312156123ca576123c961197c565b5b60006123d884828501611d96565b91505092915050565b60006040820190506123f660008301856121ca565b61240360208301846121ca565b9392505050565b600081519050612419816119ee565b92915050565b6000602082840312156124355761243461197c565b5b60006124438482850161240a565b91505092915050565b600060608201905061246160008301866121ca565b61246e60208301856121ca565b61247b60408301846120c0565b949350505050565b60008151905061249281611d7f565b92915050565b6000602082840312156124ae576124ad61197c565b5b60006124bc84828501612483565b91505092915050565b60006020820190506124da60008301846121ca565b92915050565b600081519050919050565b600082825260208201905092915050565b6000819050602082019050919050565b600061251782612140565b9050919050565b6125278161250c565b82525050565b6000612539838361251e565b60208301905092915050565b6000602082019050919050565b600061255d826124e0565b61256781856124eb565b9350612572836124fc565b8060005b838110156125a357815161258a888261252d565b975061259583612545565b925050600181019050612576565b5085935050505092915050565b600082825260208201905092915050565b60006125cc82612002565b6125d681856125b0565b93506125e18361201e565b8060005b838110156126125781516125f9888261203d565b975061260483612055565b9250506001810190506125e5565b5085935050505092915050565b600081519050919050565b600082825260208201905092915050565b60005b8381101561265957808201518184015260208101905061263e565b60008484015250505050565b60006126708261261f565b61267a818561262a565b935061268a81856020860161263b565b61269381611a5f565b840191505092915050565b6126a781611d73565b82525050565b600060808301600083015184820360008601526126ca8282612552565b915050602083015184820360208601526126e482826125c1565b915050604083015184820360408601526126fe8282612665565b9150506060830151612713606086018261269e565b508091505092915050565b60006080820190506127336000830187611ef0565b61274060208301866121ca565b61274d60408301856121ca565b818103606083015261275f81846126ad565b905095945050505050565b600081519050612779816119b8565b92915050565b6003811061278c57600080fd5b50565b60008151905061279e8161277f565b92915050565b600080604083850312156127bb576127ba61197c565b5b60006127c98582860161276a565b92505060206127da8582860161278f565b9150509250929050565b600067ffffffffffffffff8211156127ff576127fe611a70565b5b602082029050602081019050919050565b600061281b826119a6565b9050919050565b61282b81612810565b811461283657600080fd5b50565b60008151905061284881612822565b92915050565b600061286161285c846127e4565b611ad0565b9050808382526020820190506020840283018581111561288457612883611b21565b5b835b818110156128ad57806128998882612839565b845260208401935050602081019050612886565b5050509392505050565b600082601f8301126128cc576128cb611af0565b5b81516128dc84826020860161284e565b91505092915050565b60006128f86128f384611bfb565b611ad0565b9050808382526020820190506020840283018581111561291b5761291a611b21565b5b835b818110156129445780612930888261240a565b84526020840193505060208101905061291d565b5050509392505050565b600082601f83011261296357612962611af0565b5b81516129738482602086016128e5565b91505092915050565b6000806000606084860312156129955761299461197c565b5b600084015167ffffffffffffffff8111156129b3576129b2611981565b5b6129bf868287016128b7565b935050602084015167ffffffffffffffff8111156129e0576129df611981565b5b6129ec8682870161294e565b92505060406129fd8682870161240a565b9150509250925092565b7f4e487b7100000000000000000000000000000000000000000000000000000000600052603260045260246000fd5b7f4e487b7100000000000000000000000000000000000000000000000000000000600052601160045260246000fd5b6000612a70826119e4565b91507fffffffffffffffffffffffffffffffffffffffffffffffffffffffffffffffff8203612aa257612aa1612a36565b5b600182019050919050565b6000612ab8826119a6565b9050919050565b612ac881612aad565b8114612ad357600080fd5b50565b600081519050612ae581612abf565b92915050565b600060208284031215612b0157612b0061197c565b5b6000612b0f84828501612ad6565b91505092915050565b6000604082019050612b2d60008301856121ca565b612b3a60208301846120c0565b9392505050565b6000612b4c826119e4565b9150612b57836119e4565b9250828201905080821115612b6f57612b6e612a36565b5b92915050565b6000604082019050612b8a60008301856120c0565b8181036020830152612b9c8184612062565b90509392505050565b600081519050919050565b600082825260208201905092915050565b6000612bcc82612ba5565b612bd68185612bb0565b9350612be681856020860161263b565b612bef81611a5f565b840191505092915050565b60006040820190508181036000830152612c148185612bc1565b9050612c2360208301846120c0565b9392505050565b60006020820190508181036000830152612c448184612bc1565b905092915050565b60006040820190508181036000830152612c668185612bc1565b9050612c7560208301846121ca565b9392505050565b60006080820190508181036000830152612c968187612bc1565b9050612ca560208301866121ca565b612cb260408301856121ca565b612cbf60608301846120c0565b95945050505050565b60006060820190508181036000830152612ce28186612bc1565b9050612cf160208301856121ca565b612cfe60408301846120c0565b949350505050565b600082825260208201905092915050565b6000612d228261261f565b612d2c8185612d06565b9350612d3c81856020860161263b565b612d4581611a5f565b840191505092915050565b60006020820190508181036000830152612d6a8184612d17565b905092915050565b60006040820190508181036000830152612d8c8185612bc1565b9050612d9b6020830184611f1a565b9392505050565b7f4e487b7100000000000000000000000000000000000000000000000000000000600052605160045260246000fdfe436f6e74726f6c6c6572202d207472616e73666572546f6b656e2066756e6374696f6e2063616c6c202d20737461727420436f6e74726f6c6c6572202d20696e6974506f6f6c282920696e69745573657244617461203d3d3d3f20636865636b206e657874206c696e65436f6e74726f6c6c6572202d20696e6974506f6f6c2829207265717565737420646f6e6520666f7220636f6e74726f6c6c657220436f6e74726f6c6c6572202d20696e6974506f6f6c28292072657175657374206d73672e73656e64657220697320676574506f6f6c5370656369616c697a6174696f6e3a20506f6f6c2041646472657373436f6e74726f6c6c6572202d207472616e73666572546f6b656e2066756e6374696f6e2063616c6c202d20656e64676574204d616e6167656420706f6f6c204a6f696e202f204578697420737461747573202d206765744a6f696e45786974456e61626c656420436f6e74726f6c6c6572202d20617070726f7665546f6b656e28292072657175657374436f6e74726f6c6c6572202d207472616e73666572546f6b656e2066756e6374696f6e2063616c6c202d207374617274202d2d3e43757272656e7420416c6c6f77616e636520a26469706673582212208a0587b5d4eabe954bec55f7e5f01c1c26b0cc3d0b9019b72654cbaa68c2476f64736f6c63430008140033",
  "linkReferences": {},
  "deployedLinkReferences": {}
}