{
  "_format": "hh-sol-artifact-1",
  "contractName": "Controller",
  "sourceName": "contracts/Controller.sol",
  "abi": [
    {
      "inputs": [
        {
          "internalType": "contract IVault",
          "name": "vault",
          "type": "address"
        },
        {
          "internalType": "bytes32",
          "name": "poolId",
          "type": "bytes32"
        }
      ],
      "stateMutability": "nonpayable",
      "type": "constructor"
    },
    {
      "inputs": [
        {
          "internalType": "address",
          "name": "token",
          "type": "address"
        },
        {
          "internalType": "uint256",
          "name": "amount",
          "type": "uint256"
        }
      ],
      "name": "approveVault",
      "outputs": [],
      "stateMutability": "nonpayable",
      "type": "function"
    },
    {
      "inputs": [],
      "name": "getAuthorizer",
      "outputs": [
        {
          "internalType": "contract IAuthorizer",
          "name": "",
          "type": "address"
        }
      ],
      "stateMutability": "view",
      "type": "function"
    },
    {
      "inputs": [],
      "name": "getJoinExitEnabled",
      "outputs": [
        {
          "internalType": "bool",
          "name": "",
          "type": "bool"
        }
      ],
      "stateMutability": "view",
      "type": "function"
    },
    {
      "inputs": [],
      "name": "getPoolId",
      "outputs": [
        {
          "internalType": "bytes32",
          "name": "",
          "type": "bytes32"
        }
      ],
      "stateMutability": "view",
      "type": "function"
    },
    {
      "inputs": [],
      "name": "getPoolSpecialization",
      "outputs": [
        {
          "internalType": "address",
          "name": "",
          "type": "address"
        },
        {
          "internalType": "enum IVault.PoolSpecialization",
          "name": "",
          "type": "uint8"
        }
      ],
      "stateMutability": "view",
      "type": "function"
    },
    {
      "inputs": [],
      "name": "getPoolTokens",
      "outputs": [
        {
          "internalType": "address[]",
          "name": "",
          "type": "address[]"
        },
        {
          "internalType": "uint256[]",
          "name": "",
          "type": "uint256[]"
        },
        {
          "internalType": "uint256",
          "name": "",
          "type": "uint256"
        }
      ],
      "stateMutability": "view",
      "type": "function"
    },
    {
      "inputs": [],
      "name": "getSwapEnabled",
      "outputs": [
        {
          "internalType": "bool",
          "name": "",
          "type": "bool"
        }
      ],
      "stateMutability": "view",
      "type": "function"
    },
    {
      "inputs": [],
      "name": "getVault",
      "outputs": [
        {
          "internalType": "contract IVault",
          "name": "",
          "type": "address"
        }
      ],
      "stateMutability": "view",
      "type": "function"
    },
    {
      "inputs": [
        {
          "internalType": "address[]",
          "name": "PoolTokens",
          "type": "address[]"
        },
        {
          "internalType": "uint256[]",
          "name": "amountsIn",
          "type": "uint256[]"
        }
      ],
      "name": "initPool",
      "outputs": [],
      "stateMutability": "payable",
      "type": "function"
    },
    {
      "inputs": [
        {
          "internalType": "address",
          "name": "sender",
          "type": "address"
        },
        {
          "internalType": "address",
          "name": "recipient",
          "type": "address"
        },
        {
          "components": [
            {
              "internalType": "contract IAsset[]",
              "name": "assets",
              "type": "address[]"
            },
            {
              "internalType": "uint256[]",
              "name": "maxAmountsIn",
              "type": "uint256[]"
            },
            {
              "internalType": "bytes",
              "name": "userData",
              "type": "bytes"
            },
            {
              "internalType": "bool",
              "name": "fromInternalBalance",
              "type": "bool"
            }
          ],
          "internalType": "struct IVault.JoinPoolRequest",
          "name": "request",
          "type": "tuple"
        }
      ],
      "name": "joinPool",
      "outputs": [],
      "stateMutability": "payable",
      "type": "function"
    },
    {
      "inputs": [
        {
          "internalType": "bool",
          "name": "joinExitEnabled",
          "type": "bool"
        }
      ],
      "name": "setJoinExitEnabled",
      "outputs": [],
      "stateMutability": "nonpayable",
      "type": "function"
    },
    {
      "inputs": [
        {
          "internalType": "address",
          "name": "token",
          "type": "address"
        },
        {
          "internalType": "uint256",
          "name": "amount",
          "type": "uint256"
        }
      ],
      "name": "transferToken",
      "outputs": [],
      "stateMutability": "nonpayable",
      "type": "function"
    }
  ],
  "bytecode": "0x60c06040523480156200001157600080fd5b5060405162003205380380620032058339818101604052810190620000379190620002a5565b6000801b810362000128573373ffffffffffffffffffffffffffffffffffffffff16635ed312826040518163ffffffff1660e01b8152600401602060405180830381865afa1580156200008e573d6000803e3d6000fd5b505050506040513d601f19601f82011682018060405250810190620000b491906200031d565b73ffffffffffffffffffffffffffffffffffffffff166338fff2d06040518163ffffffff1660e01b8152600401602060405180830381865afa158015620000ff573d6000803e3d6000fd5b505050506040513d601f19601f820116820180604052508101906200012591906200034f565b90505b8173ffffffffffffffffffffffffffffffffffffffff1663f6c00927826040518263ffffffff1660e01b815260040162000163919062000392565b6040805180830381865afa15801562000180573d6000803e3d6000fd5b505050506040513d601f19601f82011682018060405250810190620001a69190620003d7565b50508173ffffffffffffffffffffffffffffffffffffffff1660808173ffffffffffffffffffffffffffffffffffffffff16815250508060a0818152505050506200041e565b600080fd5b600073ffffffffffffffffffffffffffffffffffffffff82169050919050565b60006200021e82620001f1565b9050919050565b6000620002328262000211565b9050919050565b620002448162000225565b81146200025057600080fd5b50565b600081519050620002648162000239565b92915050565b6000819050919050565b6200027f816200026a565b81146200028b57600080fd5b50565b6000815190506200029f8162000274565b92915050565b60008060408385031215620002bf57620002be620001ec565b5b6000620002cf8582860162000253565b9250506020620002e2858286016200028e565b9150509250929050565b620002f78162000211565b81146200030357600080fd5b50565b6000815190506200031781620002ec565b92915050565b600060208284031215620003365762000335620001ec565b5b6000620003468482850162000306565b91505092915050565b600060208284031215620003685762000367620001ec565b5b600062000378848285016200028e565b91505092915050565b6200038c816200026a565b82525050565b6000602082019050620003a9600083018462000381565b92915050565b60038110620003bd57600080fd5b50565b600081519050620003d181620003af565b92915050565b60008060408385031215620003f157620003f0620001ec565b5b6000620004018582860162000306565b92505060206200041485828601620003c0565b9150509250929050565b60805160a051612d4a620004bb600039600081816105b00152818161062c015281816106b3015281816108260152818161096101528181610dd301528181611122015261120001526000818161057401528181610677015281816107ea0152818161092501528181610b3301528181610b5b01528181610c2f01528181610d0901528181610d97015281816110e601526111c40152612d4a6000f3fe6080604052600436106100a75760003560e01c80638d928af8116100645780638d928af81461019f578063aaabadc5146101ca578063b6d24737146101f5578063c399a9a41461021e578063d95219f31461024a578063de3d2b2d14610266576100a7565b80631072cbea146100ac5780631d6e909e146100d557806338fff2d0146100f157806341e45a201461011c57806347bc4d921461014757806389c0656814610172575b600080fd5b3480156100b857600080fd5b506100d360048036038101906100ce91906117ce565b61028f565b005b6100ef60048036038101906100ea9190611c2b565b610534565b005b3480156100fd57600080fd5b50610106610628565b6040516101139190611cb3565b60405180910390f35b34801561012857600080fd5b50610131610650565b60405161013e9190611cdd565b60405180910390f35b34801561015357600080fd5b5061015c6107a6565b6040516101699190611cdd565b60405180910390f35b34801561017e57600080fd5b50610187610919565b60405161019693929190611e83565b60405180910390f35b3480156101ab57600080fd5b506101b4610b2f565b6040516101c19190611f27565b60405180910390f35b3480156101d657600080fd5b506101df610b57565b6040516101ec9190611f63565b60405180910390f35b34801561020157600080fd5b5061021c600480360381019061021791906117ce565b610bed565b005b34801561022a57600080fd5b50610233610d8f565b604051610241929190612004565b60405180910390f35b610264600480360381019061025f91906120f0565b610e84565b005b34801561027257600080fd5b5061028d60048036038101906102889190612168565b6111c0565b005b6102b1604051806060016040528060318152602001612b56603191398261132b565b61034e604051806080016040528060468152602001612ccf604691398373ffffffffffffffffffffffffffffffffffffffff1663dd62ed3e33306040518363ffffffff1660e01b8152600401610308929190612195565b602060405180830381865afa158015610325573d6000803e3d6000fd5b505050506040513d601f19601f8201168201806040525081019061034991906121d3565b61132b565b808273ffffffffffffffffffffffffffffffffffffffff1663dd62ed3e33306040518363ffffffff1660e01b815260040161038a929190612195565b602060405180830381865afa1580156103a7573d6000803e3d6000fd5b505050506040513d601f19601f820116820180604052508101906103cb91906121d3565b106104f1578173ffffffffffffffffffffffffffffffffffffffff166323b872dd3330846040518463ffffffff1660e01b815260040161040d93929190612200565b6020604051808303816000875af115801561042c573d6000803e3d6000fd5b505050506040513d601f19601f82011682018060405250810190610450919061224c565b506104ec6040518060600160405280602e8152602001612c45602e91398373ffffffffffffffffffffffffffffffffffffffff166370a08231306040518263ffffffff1660e01b81526004016104a69190612279565b602060405180830381865afa1580156104c3573d6000803e3d6000fd5b505050506040513d601f19601f820116820180604052508101906104e791906121d3565b61132b565b610530565b61052f6040518060400160405280601781526020017f476574206164646974696f6e6120616c6c6f77616e63650000000000000000008152506113c7565b5b5050565b6105726040518060400160405280601e81526020017f436f6e74726f6c6c6572202d206a6f696e506f6f6c28292072657175737400008152506113c7565b7f000000000000000000000000000000000000000000000000000000000000000073ffffffffffffffffffffffffffffffffffffffff1663b95cac287f00000000000000000000000000000000000000000000000000000000000000008585856040518563ffffffff1660e01b81526004016105f194939291906124d2565b600060405180830381600087803b15801561060b57600080fd5b505af115801561061f573d6000803e3d6000fd5b50505050505050565b60007f0000000000000000000000000000000000000000000000000000000000000000905090565b6000610673604051806060016040528060398152602001612c73603991396113c7565b60007f000000000000000000000000000000000000000000000000000000000000000073ffffffffffffffffffffffffffffffffffffffff1663f6c009277f00000000000000000000000000000000000000000000000000000000000000006040518263ffffffff1660e01b81526004016106ee9190611cb3565b6040805180830381865afa15801561070a573d6000803e3d6000fd5b505050506040513d601f19601f8201168201806040525081019061072e9190612558565b5090508073ffffffffffffffffffffffffffffffffffffffff166341e45a206040518163ffffffff1660e01b8152600401602060405180830381865afa15801561077c573d6000803e3d6000fd5b505050506040513d601f19601f820116820180604052508101906107a0919061224c565b91505090565b60006107e66040518060400160405280601b81526020017f4d616e6167656420506f6f6c2067657453776170456e61626c656400000000008152506113c7565b60007f000000000000000000000000000000000000000000000000000000000000000073ffffffffffffffffffffffffffffffffffffffff1663f6c009277f00000000000000000000000000000000000000000000000000000000000000006040518263ffffffff1660e01b81526004016108619190611cb3565b6040805180830381865afa15801561087d573d6000803e3d6000fd5b505050506040513d601f19601f820116820180604052508101906108a19190612558565b5090508073ffffffffffffffffffffffffffffffffffffffff166347bc4d926040518163ffffffff1660e01b8152600401602060405180830381865afa1580156108ef573d6000803e3d6000fd5b505050506040513d601f19601f82011682018060405250810190610913919061224c565b91505090565b606080600060608060007f000000000000000000000000000000000000000000000000000000000000000073ffffffffffffffffffffffffffffffffffffffff1663f94d46687f00000000000000000000000000000000000000000000000000000000000000006040518263ffffffff1660e01b815260040161099c9190611cb3565b600060405180830381865afa1580156109b9573d6000803e3d6000fd5b505050506040513d6000823e3d601f19601f820116820180604052508101906109e29190612730565b8093508194508295505050506000835167ffffffffffffffff811115610a0b57610a0a611824565b5b604051908082528060200260200182016040528015610a395781602001602082028036833780820191505090505b50905060005b8451811015610b1c57848181518110610a5b57610a5a6127bb565b5b6020026020010151828281518110610a7657610a756127bb565b5b602002602001019073ffffffffffffffffffffffffffffffffffffffff16908173ffffffffffffffffffffffffffffffffffffffff1681525050610b096040518060400160405280601881526020017f676574506f6f6c546f6b656e733a20546f6b656e732025730000000000000000815250838381518110610afc57610afb6127bb565b5b6020026020010151611460565b8080610b1490612819565b915050610a3f565b5080838396509650965050505050909192565b60007f0000000000000000000000000000000000000000000000000000000000000000905090565b60007f000000000000000000000000000000000000000000000000000000000000000073ffffffffffffffffffffffffffffffffffffffff1663aaabadc56040518163ffffffff1660e01b8152600401602060405180830381865afa158015610bc4573d6000803e3d6000fd5b505050506040513d601f19601f82011682018060405250810190610be8919061289f565b905090565b610c11604051806060016040528060238152602001612cac602391393330846114fc565b8173ffffffffffffffffffffffffffffffffffffffff1663095ea7b37f0000000000000000000000000000000000000000000000000000000000000000836040518363ffffffff1660e01b8152600401610c6c9291906128cc565b6020604051808303816000875af1158015610c8b573d6000803e3d6000fd5b505050506040513d601f19601f82011682018060405250810190610caf919061224c565b50610d8b6040518060400160405280601d81526020017f436f6e74726f6c6c657220416c6c6f77616e6365206f6620746f6b656e000000815250838473ffffffffffffffffffffffffffffffffffffffff1663dd62ed3e307f00000000000000000000000000000000000000000000000000000000000000006040518363ffffffff1660e01b8152600401610d45929190612195565b602060405180830381865afa158015610d62573d6000803e3d6000fd5b505050506040513d601f19601f82011682018060405250810190610d8691906121d3565b61159e565b5050565b6000806000807f000000000000000000000000000000000000000000000000000000000000000073ffffffffffffffffffffffffffffffffffffffff1663f6c009277f00000000000000000000000000000000000000000000000000000000000000006040518263ffffffff1660e01b8152600401610e0e9190611cb3565b6040805180830381865afa158015610e2a573d6000803e3d6000fd5b505050506040513d601f19601f82011682018060405250810190610e4e9190612558565b8092508193505050610e78604051806060016040528060238152602001612c226023913983611460565b81819350935050509091565b6000825167ffffffffffffffff811115610ea157610ea0611824565b5b604051908082528060200260200182016040528015610ecf5781602001602082028036833780820191505090505b50905060005b8351811015610f5957838181518110610ef157610ef06127bb565b5b6020026020010151828281518110610f0c57610f0b6127bb565b5b602002602001019073ffffffffffffffffffffffffffffffffffffffff16908173ffffffffffffffffffffffffffffffffffffffff16815250508080610f5190612819565b915050610ed5565b50600082516001610f6a91906128f5565b67ffffffffffffffff811115610f8357610f82611824565b5b604051908082528060200260200182016040528015610fb15781602001602082028036833780820191505090505b5090506dfffffffffffffffffffffffca44081600081518110610fd757610fd66127bb565b5b60200260200101818152505060005b835181101561104857838181518110611002576110016127bb565b5b60200260200101518260018361101891906128f5565b81518110611029576110286127bb565b5b602002602001018181525050808061104090612819565b915050610fe6565b50600080818560405160200161105f929190612929565b6040516020818303038152906040529050611091604051806060016040528060398152602001612b87603991396113c7565b61109a8161163d565b600060405180608001604052808681526020018581526020018381526020016000151581525090506110e46040518060600160405280602e8152602001612bf4602e913933611460565b7f000000000000000000000000000000000000000000000000000000000000000073ffffffffffffffffffffffffffffffffffffffff1663b95cac287f00000000000000000000000000000000000000000000000000000000000000003030856040518563ffffffff1660e01b815260040161116394939291906124d2565b600060405180830381600087803b15801561117d57600080fd5b505af1158015611191573d6000803e3d6000fd5b505050506111b7604051806060016040528060348152602001612bc06034913930611460565b50505050505050565b60007f000000000000000000000000000000000000000000000000000000000000000073ffffffffffffffffffffffffffffffffffffffff1663f6c009277f00000000000000000000000000000000000000000000000000000000000000006040518263ffffffff1660e01b815260040161123b9190611cb3565b6040805180830381865afa158015611257573d6000803e3d6000fd5b505050506040513d601f19601f8201168201806040525081019061127b9190612558565b5090506112bc6040518060400160405280601f81526020017f4d616e6167656420506f6f6c207365744a6f696e45786974456e61626c6564008152506113c7565b8073ffffffffffffffffffffffffffffffffffffffff1663de3d2b2d836040518263ffffffff1660e01b81526004016112f59190611cdd565b600060405180830381600087803b15801561130f57600080fd5b505af1158015611323573d6000803e3d6000fd5b505050505050565b6113c382826040516024016113419291906129ae565b6040516020818303038152906040527fb60e72cc000000000000000000000000000000000000000000000000000000007bffffffffffffffffffffffffffffffffffffffffffffffffffffffff19166020820180517bffffffffffffffffffffffffffffffffffffffffffffffffffffffff83818316178352505050506116d6565b5050565b61145d816040516024016113db91906129de565b6040516020818303038152906040527f41304fac000000000000000000000000000000000000000000000000000000007bffffffffffffffffffffffffffffffffffffffffffffffffffffffff19166020820180517bffffffffffffffffffffffffffffffffffffffffffffffffffffffff83818316178352505050506116d6565b50565b6114f88282604051602401611476929190612a00565b6040516020818303038152906040527f319af333000000000000000000000000000000000000000000000000000000007bffffffffffffffffffffffffffffffffffffffffffffffffffffffff19166020820180517bffffffffffffffffffffffffffffffffffffffffffffffffffffffff83818316178352505050506116d6565b5050565b611598848484846040516024016115169493929190612a30565b6040516020818303038152906040527f8ef3f399000000000000000000000000000000000000000000000000000000007bffffffffffffffffffffffffffffffffffffffffffffffffffffffff19166020820180517bffffffffffffffffffffffffffffffffffffffffffffffffffffffff83818316178352505050506116d6565b50505050565b6116388383836040516024016115b693929190612a7c565b6040516020818303038152906040527f0d26b925000000000000000000000000000000000000000000000000000000007bffffffffffffffffffffffffffffffffffffffffffffffffffffffff19166020820180517bffffffffffffffffffffffffffffffffffffffffffffffffffffffff83818316178352505050506116d6565b505050565b6116d3816040516024016116519190612b04565b6040516020818303038152906040527f0be77f56000000000000000000000000000000000000000000000000000000007bffffffffffffffffffffffffffffffffffffffffffffffffffffffff19166020820180517bffffffffffffffffffffffffffffffffffffffffffffffffffffffff83818316178352505050506116d6565b50565b6116ed816116e56116f0611711565b63ffffffff16565b50565b60006a636f6e736f6c652e6c6f679050600080835160208501845afa505050565b61171c819050919050565b611724612b26565b565b6000604051905090565b600080fd5b600080fd5b600073ffffffffffffffffffffffffffffffffffffffff82169050919050565b60006117658261173a565b9050919050565b6117758161175a565b811461178057600080fd5b50565b6000813590506117928161176c565b92915050565b6000819050919050565b6117ab81611798565b81146117b657600080fd5b50565b6000813590506117c8816117a2565b92915050565b600080604083850312156117e5576117e4611730565b5b60006117f385828601611783565b9250506020611804858286016117b9565b9150509250929050565b600080fd5b6000601f19601f8301169050919050565b7f4e487b7100000000000000000000000000000000000000000000000000000000600052604160045260246000fd5b61185c82611813565b810181811067ffffffffffffffff8211171561187b5761187a611824565b5b80604052505050565b600061188e611726565b905061189a8282611853565b919050565b600080fd5b600080fd5b600067ffffffffffffffff8211156118c4576118c3611824565b5b602082029050602081019050919050565b600080fd5b60006118e58261175a565b9050919050565b6118f5816118da565b811461190057600080fd5b50565b600081359050611912816118ec565b92915050565b600061192b611926846118a9565b611884565b9050808382526020820190506020840283018581111561194e5761194d6118d5565b5b835b8181101561197757806119638882611903565b845260208401935050602081019050611950565b5050509392505050565b600082601f830112611996576119956118a4565b5b81356119a6848260208601611918565b91505092915050565b600067ffffffffffffffff8211156119ca576119c9611824565b5b602082029050602081019050919050565b60006119ee6119e9846119af565b611884565b90508083825260208201905060208402830185811115611a1157611a106118d5565b5b835b81811015611a3a5780611a2688826117b9565b845260208401935050602081019050611a13565b5050509392505050565b600082601f830112611a5957611a586118a4565b5b8135611a698482602086016119db565b91505092915050565b600080fd5b600067ffffffffffffffff821115611a9257611a91611824565b5b611a9b82611813565b9050602081019050919050565b82818337600083830152505050565b6000611aca611ac584611a77565b611884565b905082815260208101848484011115611ae657611ae5611a72565b5b611af1848285611aa8565b509392505050565b600082601f830112611b0e57611b0d6118a4565b5b8135611b1e848260208601611ab7565b91505092915050565b60008115159050919050565b611b3c81611b27565b8114611b4757600080fd5b50565b600081359050611b5981611b33565b92915050565b600060808284031215611b7557611b7461180e565b5b611b7f6080611884565b9050600082013567ffffffffffffffff811115611b9f57611b9e61189f565b5b611bab84828501611981565b600083015250602082013567ffffffffffffffff811115611bcf57611bce61189f565b5b611bdb84828501611a44565b602083015250604082013567ffffffffffffffff811115611bff57611bfe61189f565b5b611c0b84828501611af9565b6040830152506060611c1f84828501611b4a565b60608301525092915050565b600080600060608486031215611c4457611c43611730565b5b6000611c5286828701611783565b9350506020611c6386828701611783565b925050604084013567ffffffffffffffff811115611c8457611c83611735565b5b611c9086828701611b5f565b9150509250925092565b6000819050919050565b611cad81611c9a565b82525050565b6000602082019050611cc86000830184611ca4565b92915050565b611cd781611b27565b82525050565b6000602082019050611cf26000830184611cce565b92915050565b600081519050919050565b600082825260208201905092915050565b6000819050602082019050919050565b611d2d8161175a565b82525050565b6000611d3f8383611d24565b60208301905092915050565b6000602082019050919050565b6000611d6382611cf8565b611d6d8185611d03565b9350611d7883611d14565b8060005b83811015611da9578151611d908882611d33565b9750611d9b83611d4b565b925050600181019050611d7c565b5085935050505092915050565b600081519050919050565b600082825260208201905092915050565b6000819050602082019050919050565b611deb81611798565b82525050565b6000611dfd8383611de2565b60208301905092915050565b6000602082019050919050565b6000611e2182611db6565b611e2b8185611dc1565b9350611e3683611dd2565b8060005b83811015611e67578151611e4e8882611df1565b9750611e5983611e09565b925050600181019050611e3a565b5085935050505092915050565b611e7d81611798565b82525050565b60006060820190508181036000830152611e9d8186611d58565b90508181036020830152611eb18185611e16565b9050611ec06040830184611e74565b949350505050565b6000819050919050565b6000611eed611ee8611ee38461173a565b611ec8565b61173a565b9050919050565b6000611eff82611ed2565b9050919050565b6000611f1182611ef4565b9050919050565b611f2181611f06565b82525050565b6000602082019050611f3c6000830184611f18565b92915050565b6000611f4d82611ef4565b9050919050565b611f5d81611f42565b82525050565b6000602082019050611f786000830184611f54565b92915050565b611f878161175a565b82525050565b7f4e487b7100000000000000000000000000000000000000000000000000000000600052602160045260246000fd5b60038110611fcd57611fcc611f8d565b5b50565b6000819050611fde82611fbc565b919050565b6000611fee82611fd0565b9050919050565b611ffe81611fe3565b82525050565b60006040820190506120196000830185611f7e565b6120266020830184611ff5565b9392505050565b600067ffffffffffffffff82111561204857612047611824565b5b602082029050602081019050919050565b600061206c6120678461202d565b611884565b9050808382526020820190506020840283018581111561208f5761208e6118d5565b5b835b818110156120b857806120a48882611783565b845260208401935050602081019050612091565b5050509392505050565b600082601f8301126120d7576120d66118a4565b5b81356120e7848260208601612059565b91505092915050565b6000806040838503121561210757612106611730565b5b600083013567ffffffffffffffff81111561212557612124611735565b5b612131858286016120c2565b925050602083013567ffffffffffffffff81111561215257612151611735565b5b61215e85828601611a44565b9150509250929050565b60006020828403121561217e5761217d611730565b5b600061218c84828501611b4a565b91505092915050565b60006040820190506121aa6000830185611f7e565b6121b76020830184611f7e565b9392505050565b6000815190506121cd816117a2565b92915050565b6000602082840312156121e9576121e8611730565b5b60006121f7848285016121be565b91505092915050565b60006060820190506122156000830186611f7e565b6122226020830185611f7e565b61222f6040830184611e74565b949350505050565b60008151905061224681611b33565b92915050565b60006020828403121561226257612261611730565b5b600061227084828501612237565b91505092915050565b600060208201905061228e6000830184611f7e565b92915050565b600081519050919050565b600082825260208201905092915050565b6000819050602082019050919050565b60006122cb82611ef4565b9050919050565b6122db816122c0565b82525050565b60006122ed83836122d2565b60208301905092915050565b6000602082019050919050565b600061231182612294565b61231b818561229f565b9350612326836122b0565b8060005b8381101561235757815161233e88826122e1565b9750612349836122f9565b92505060018101905061232a565b5085935050505092915050565b600082825260208201905092915050565b600061238082611db6565b61238a8185612364565b935061239583611dd2565b8060005b838110156123c65781516123ad8882611df1565b97506123b883611e09565b925050600181019050612399565b5085935050505092915050565b600081519050919050565b600082825260208201905092915050565b60005b8381101561240d5780820151818401526020810190506123f2565b60008484015250505050565b6000612424826123d3565b61242e81856123de565b935061243e8185602086016123ef565b61244781611813565b840191505092915050565b61245b81611b27565b82525050565b6000608083016000830151848203600086015261247e8282612306565b915050602083015184820360208601526124988282612375565b915050604083015184820360408601526124b28282612419565b91505060608301516124c76060860182612452565b508091505092915050565b60006080820190506124e76000830187611ca4565b6124f46020830186611f7e565b6125016040830185611f7e565b81810360608301526125138184612461565b905095945050505050565b60008151905061252d8161176c565b92915050565b6003811061254057600080fd5b50565b60008151905061255281612533565b92915050565b6000806040838503121561256f5761256e611730565b5b600061257d8582860161251e565b925050602061258e85828601612543565b9150509250929050565b600067ffffffffffffffff8211156125b3576125b2611824565b5b602082029050602081019050919050565b60006125cf8261175a565b9050919050565b6125df816125c4565b81146125ea57600080fd5b50565b6000815190506125fc816125d6565b92915050565b600061261561261084612598565b611884565b90508083825260208201905060208402830185811115612638576126376118d5565b5b835b81811015612661578061264d88826125ed565b84526020840193505060208101905061263a565b5050509392505050565b600082601f8301126126805761267f6118a4565b5b8151612690848260208601612602565b91505092915050565b60006126ac6126a7846119af565b611884565b905080838252602082019050602084028301858111156126cf576126ce6118d5565b5b835b818110156126f857806126e488826121be565b8452602084019350506020810190506126d1565b5050509392505050565b600082601f830112612717576127166118a4565b5b8151612727848260208601612699565b91505092915050565b60008060006060848603121561274957612748611730565b5b600084015167ffffffffffffffff81111561276757612766611735565b5b6127738682870161266b565b935050602084015167ffffffffffffffff81111561279457612793611735565b5b6127a086828701612702565b92505060406127b1868287016121be565b9150509250925092565b7f4e487b7100000000000000000000000000000000000000000000000000000000600052603260045260246000fd5b7f4e487b7100000000000000000000000000000000000000000000000000000000600052601160045260246000fd5b600061282482611798565b91507fffffffffffffffffffffffffffffffffffffffffffffffffffffffffffffffff8203612856576128556127ea565b5b600182019050919050565b600061286c8261175a565b9050919050565b61287c81612861565b811461288757600080fd5b50565b60008151905061289981612873565b92915050565b6000602082840312156128b5576128b4611730565b5b60006128c38482850161288a565b91505092915050565b60006040820190506128e16000830185611f7e565b6128ee6020830184611e74565b9392505050565b600061290082611798565b915061290b83611798565b9250828201905080821115612923576129226127ea565b5b92915050565b600060408201905061293e6000830185611e74565b81810360208301526129508184611e16565b90509392505050565b600081519050919050565b600082825260208201905092915050565b600061298082612959565b61298a8185612964565b935061299a8185602086016123ef565b6129a381611813565b840191505092915050565b600060408201905081810360008301526129c88185612975565b90506129d76020830184611e74565b9392505050565b600060208201905081810360008301526129f88184612975565b905092915050565b60006040820190508181036000830152612a1a8185612975565b9050612a296020830184611f7e565b9392505050565b60006080820190508181036000830152612a4a8187612975565b9050612a596020830186611f7e565b612a666040830185611f7e565b612a736060830184611e74565b95945050505050565b60006060820190508181036000830152612a968186612975565b9050612aa56020830185611f7e565b612ab26040830184611e74565b949350505050565b600082825260208201905092915050565b6000612ad6826123d3565b612ae08185612aba565b9350612af08185602086016123ef565b612af981611813565b840191505092915050565b60006020820190508181036000830152612b1e8184612acb565b905092915050565b7f4e487b7100000000000000000000000000000000000000000000000000000000600052605160045260246000fdfe436f6e74726f6c6c6572202d207472616e73666572546f6b656e2066756e6374696f6e2063616c6c202d20737461727420436f6e74726f6c6c6572202d20696e6974506f6f6c282920696e69745573657244617461203d3d3d3f20636865636b206e657874206c696e65436f6e74726f6c6c6572202d20696e6974506f6f6c2829207265717565737420646f6e6520666f7220636f6e74726f6c6c657220436f6e74726f6c6c6572202d20696e6974506f6f6c28292072657175657374206d73672e73656e64657220697320676574506f6f6c5370656369616c697a6174696f6e3a20506f6f6c2041646472657373436f6e74726f6c6c6572202d207472616e73666572546f6b656e2066756e6374696f6e2063616c6c202d20656e64676574204d616e6167656420706f6f6c204a6f696e202f204578697420737461747573202d206765744a6f696e45786974456e61626c656420436f6e74726f6c6c6572202d20617070726f7665546f6b656e28292072657175657374436f6e74726f6c6c6572202d207472616e73666572546f6b656e2066756e6374696f6e2063616c6c202d207374617274202d2d3e43757272656e7420416c6c6f77616e636520a2646970667358221220f96eaab7859e3d081f590c922091618343c0b8915a439fafe15574a125102cf864736f6c63430008140033",
  "linkReferences": {},
  "deployedLinkReferences": {}
}