{
  "_format": "hh-sol-artifact-1",
  "contractName": "DrawToken",
  "sourceName": "contracts/DrawToken.sol",
  "abi": [
    {
      "inputs": [
        {
          "internalType": "address",
          "name": "_vault",
          "type": "address"
        },
        {
          "internalType": "uint256",
          "name": "amount",
          "type": "uint256"
        }
      ],
      "stateMutability": "nonpayable",
      "type": "constructor"
    },
    {
      "anonymous": false,
      "inputs": [
        {
          "indexed": true,
          "internalType": "address",
          "name": "owner",
          "type": "address"
        },
        {
          "indexed": true,
          "internalType": "address",
          "name": "spender",
          "type": "address"
        },
        {
          "indexed": false,
          "internalType": "uint256",
          "name": "value",
          "type": "uint256"
        }
      ],
      "name": "Approval",
      "type": "event"
    },
    {
      "anonymous": false,
      "inputs": [
        {
          "indexed": true,
          "internalType": "address",
          "name": "owner",
          "type": "address"
        },
        {
          "indexed": true,
          "internalType": "address",
          "name": "spender",
          "type": "address"
        },
        {
          "indexed": false,
          "internalType": "uint256",
          "name": "value",
          "type": "uint256"
        }
      ],
      "name": "DrawTokenApproved",
      "type": "event"
    },
    {
      "anonymous": false,
      "inputs": [
        {
          "indexed": true,
          "internalType": "address",
          "name": "previousOwner",
          "type": "address"
        },
        {
          "indexed": true,
          "internalType": "address",
          "name": "newOwner",
          "type": "address"
        }
      ],
      "name": "OwnershipTransferred",
      "type": "event"
    },
    {
      "anonymous": false,
      "inputs": [
        {
          "indexed": true,
          "internalType": "address",
          "name": "from",
          "type": "address"
        },
        {
          "indexed": true,
          "internalType": "address",
          "name": "to",
          "type": "address"
        },
        {
          "indexed": false,
          "internalType": "uint256",
          "name": "value",
          "type": "uint256"
        }
      ],
      "name": "Transfer",
      "type": "event"
    },
    {
      "inputs": [
        {
          "internalType": "address",
          "name": "owner",
          "type": "address"
        },
        {
          "internalType": "address",
          "name": "spender",
          "type": "address"
        }
      ],
      "name": "allowance",
      "outputs": [
        {
          "internalType": "uint256",
          "name": "",
          "type": "uint256"
        }
      ],
      "stateMutability": "view",
      "type": "function"
    },
    {
      "inputs": [
        {
          "internalType": "address",
          "name": "spender",
          "type": "address"
        },
        {
          "internalType": "uint256",
          "name": "amount",
          "type": "uint256"
        }
      ],
      "name": "approve",
      "outputs": [
        {
          "internalType": "bool",
          "name": "",
          "type": "bool"
        }
      ],
      "stateMutability": "nonpayable",
      "type": "function"
    },
    {
      "inputs": [
        {
          "internalType": "address",
          "name": "account",
          "type": "address"
        }
      ],
      "name": "balanceOf",
      "outputs": [
        {
          "internalType": "uint256",
          "name": "",
          "type": "uint256"
        }
      ],
      "stateMutability": "view",
      "type": "function"
    },
    {
      "inputs": [],
      "name": "decimals",
      "outputs": [
        {
          "internalType": "uint8",
          "name": "",
          "type": "uint8"
        }
      ],
      "stateMutability": "view",
      "type": "function"
    },
    {
      "inputs": [
        {
          "internalType": "address",
          "name": "spender",
          "type": "address"
        },
        {
          "internalType": "uint256",
          "name": "subtractedValue",
          "type": "uint256"
        }
      ],
      "name": "decreaseAllowance",
      "outputs": [
        {
          "internalType": "bool",
          "name": "",
          "type": "bool"
        }
      ],
      "stateMutability": "nonpayable",
      "type": "function"
    },
    {
      "inputs": [
        {
          "internalType": "address",
          "name": "spender",
          "type": "address"
        },
        {
          "internalType": "uint256",
          "name": "addedValue",
          "type": "uint256"
        }
      ],
      "name": "increaseAllowance",
      "outputs": [
        {
          "internalType": "bool",
          "name": "",
          "type": "bool"
        }
      ],
      "stateMutability": "nonpayable",
      "type": "function"
    },
    {
      "inputs": [],
      "name": "name",
      "outputs": [
        {
          "internalType": "string",
          "name": "",
          "type": "string"
        }
      ],
      "stateMutability": "view",
      "type": "function"
    },
    {
      "inputs": [],
      "name": "owner",
      "outputs": [
        {
          "internalType": "address",
          "name": "",
          "type": "address"
        }
      ],
      "stateMutability": "view",
      "type": "function"
    },
    {
      "inputs": [],
      "name": "renounceOwnership",
      "outputs": [],
      "stateMutability": "nonpayable",
      "type": "function"
    },
    {
      "inputs": [
        {
          "internalType": "address",
          "name": "_controller",
          "type": "address"
        }
      ],
      "name": "setController",
      "outputs": [],
      "stateMutability": "nonpayable",
      "type": "function"
    },
    {
      "inputs": [],
      "name": "symbol",
      "outputs": [
        {
          "internalType": "string",
          "name": "",
          "type": "string"
        }
      ],
      "stateMutability": "view",
      "type": "function"
    },
    {
      "inputs": [],
      "name": "totalSupply",
      "outputs": [
        {
          "internalType": "uint256",
          "name": "",
          "type": "uint256"
        }
      ],
      "stateMutability": "view",
      "type": "function"
    },
    {
      "inputs": [
        {
          "internalType": "address",
          "name": "_to",
          "type": "address"
        },
        {
          "internalType": "uint256",
          "name": "_value",
          "type": "uint256"
        }
      ],
      "name": "transfer",
      "outputs": [
        {
          "internalType": "bool",
          "name": "",
          "type": "bool"
        }
      ],
      "stateMutability": "nonpayable",
      "type": "function"
    },
    {
      "inputs": [
        {
          "internalType": "address",
          "name": "_from",
          "type": "address"
        },
        {
          "internalType": "address",
          "name": "_to",
          "type": "address"
        },
        {
          "internalType": "uint256",
          "name": "_value",
          "type": "uint256"
        }
      ],
      "name": "transferFrom",
      "outputs": [
        {
          "internalType": "bool",
          "name": "",
          "type": "bool"
        }
      ],
      "stateMutability": "nonpayable",
      "type": "function"
    },
    {
      "inputs": [
        {
          "internalType": "address",
          "name": "newOwner",
          "type": "address"
        }
      ],
      "name": "transferOwnership",
      "outputs": [],
      "stateMutability": "nonpayable",
      "type": "function"
    }
  ],
  "bytecode": "0x60806040523480156200001157600080fd5b5060405162002b5f38038062002b5f8339818101604052810190620000379190620006f6565b6040518060400160405280600981526020017f44726177546f6b656e00000000000000000000000000000000000000000000008152506040518060400160405280600281526020017f44540000000000000000000000000000000000000000000000000000000000008152508160039081620000b49190620009ad565b508060049081620000c69190620009ad565b505050620000e9620000dd6200024860201b60201c565b6200025060201b60201c565b6200012e60405180606001604052806027815260200162002b38602791396040518060600160405280602e815260200162002b0a602e9139836200031660201b60201c565b33600660006101000a81548173ffffffffffffffffffffffffffffffffffffffff021916908373ffffffffffffffffffffffffffffffffffffffff16021790555081600760006101000a81548173ffffffffffffffffffffffffffffffffffffffff021916908373ffffffffffffffffffffffffffffffffffffffff160217905550620002196040518060400160405280601b81526020017f4472617720546f6b656e206465706c6f79657220616464726573730000000000815250600660009054906101000a900473ffffffffffffffffffffffffffffffffffffffff16620003bf60201b60201c565b6200024033670de0b6b3a76400008362000234919062000ac3565b6200046560201b60201c565b505062000d37565b600033905090565b6000600560009054906101000a900473ffffffffffffffffffffffffffffffffffffffff16905081600560006101000a81548173ffffffffffffffffffffffffffffffffffffffff021916908373ffffffffffffffffffffffffffffffffffffffff1602179055508173ffffffffffffffffffffffffffffffffffffffff168173ffffffffffffffffffffffffffffffffffffffff167f8be0079c531659141344cd1fd0a4f28419497f9722a3daafe3b4186f6b6457e060405160405180910390a35050565b620003ba838383604051602401620003319392919062000bae565b6040516020818303038152906040527f5821efa1000000000000000000000000000000000000000000000000000000007bffffffffffffffffffffffffffffffffffffffffffffffffffffffff19166020820180517bffffffffffffffffffffffffffffffffffffffffffffffffffffffff8381831617835250505050620005dd60201b60201c565b505050565b620004618282604051602401620003d892919062000c0a565b6040516020818303038152906040527f319af333000000000000000000000000000000000000000000000000000000007bffffffffffffffffffffffffffffffffffffffffffffffffffffffff19166020820180517bffffffffffffffffffffffffffffffffffffffffffffffffffffffff8381831617835250505050620005dd60201b60201c565b5050565b600073ffffffffffffffffffffffffffffffffffffffff168273ffffffffffffffffffffffffffffffffffffffff1603620004d7576040517f08c379a0000000000000000000000000000000000000000000000000000000008152600401620004ce9062000c8e565b60405180910390fd5b620004eb600083836200060660201b60201c565b8060026000828254620004ff919062000cb0565b92505081905550806000808473ffffffffffffffffffffffffffffffffffffffff1673ffffffffffffffffffffffffffffffffffffffff168152602001908152602001600020600082825462000556919062000cb0565b925050819055508173ffffffffffffffffffffffffffffffffffffffff16600073ffffffffffffffffffffffffffffffffffffffff167fddf252ad1be2c89b69c2b068fc378daa952ba7f163c4a11628f55a4df523b3ef83604051620005bd919062000ceb565b60405180910390a3620005d9600083836200060b60201b60201c565b5050565b6200060381620005fe6200061060201b62000ac2176200063160201b60201c565b60201c565b50565b505050565b505050565b60006a636f6e736f6c652e6c6f679050600080835160208501845afa505050565b6200064560201b6200131317819050919050565b6200064f62000d08565b565b600080fd5b600073ffffffffffffffffffffffffffffffffffffffff82169050919050565b6000620006838262000656565b9050919050565b620006958162000676565b8114620006a157600080fd5b50565b600081519050620006b5816200068a565b92915050565b6000819050919050565b620006d081620006bb565b8114620006dc57600080fd5b50565b600081519050620006f081620006c5565b92915050565b6000806040838503121562000710576200070f62000651565b5b60006200072085828601620006a4565b92505060206200073385828601620006df565b9150509250929050565b600081519050919050565b7f4e487b7100000000000000000000000000000000000000000000000000000000600052604160045260246000fd5b7f4e487b7100000000000000000000000000000000000000000000000000000000600052602260045260246000fd5b60006002820490506001821680620007bf57607f821691505b602082108103620007d557620007d462000777565b5b50919050565b60008190508160005260206000209050919050565b60006020601f8301049050919050565b600082821b905092915050565b6000600883026200083f7fffffffffffffffffffffffffffffffffffffffffffffffffffffffffffffffff8262000800565b6200084b868362000800565b95508019841693508086168417925050509392505050565b6000819050919050565b60006200088e620008886200088284620006bb565b62000863565b620006bb565b9050919050565b6000819050919050565b620008aa836200086d565b620008c2620008b98262000895565b8484546200080d565b825550505050565b600090565b620008d9620008ca565b620008e68184846200089f565b505050565b5b818110156200090e5762000902600082620008cf565b600181019050620008ec565b5050565b601f8211156200095d576200092781620007db565b6200093284620007f0565b8101602085101562000942578190505b6200095a6200095185620007f0565b830182620008eb565b50505b505050565b600082821c905092915050565b6000620009826000198460080262000962565b1980831691505092915050565b60006200099d83836200096f565b9150826002028217905092915050565b620009b8826200073d565b67ffffffffffffffff811115620009d457620009d362000748565b5b620009e08254620007a6565b620009ed82828562000912565b600060209050601f83116001811462000a25576000841562000a10578287015190505b62000a1c85826200098f565b86555062000a8c565b601f19841662000a3586620007db565b60005b8281101562000a5f5784890151825560018201915060208501945060208101905062000a38565b8683101562000a7f578489015162000a7b601f8916826200096f565b8355505b6001600288020188555050505b505050505050565b7f4e487b7100000000000000000000000000000000000000000000000000000000600052601160045260246000fd5b600062000ad082620006bb565b915062000add83620006bb565b925082820262000aed81620006bb565b9150828204841483151762000b075762000b0662000a94565b5b5092915050565b600082825260208201905092915050565b60005b8381101562000b3f57808201518184015260208101905062000b22565b60008484015250505050565b6000601f19601f8301169050919050565b600062000b69826200073d565b62000b75818562000b0e565b935062000b8781856020860162000b1f565b62000b928162000b4b565b840191505092915050565b62000ba881620006bb565b82525050565b6000606082019050818103600083015262000bca818662000b5c565b9050818103602083015262000be0818562000b5c565b905062000bf1604083018462000b9d565b949350505050565b62000c048162000676565b82525050565b6000604082019050818103600083015262000c26818562000b5c565b905062000c37602083018462000bf9565b9392505050565b7f45524332303a206d696e7420746f20746865207a65726f206164647265737300600082015250565b600062000c76601f8362000b0e565b915062000c838262000c3e565b602082019050919050565b6000602082019050818103600083015262000ca98162000c67565b9050919050565b600062000cbd82620006bb565b915062000cca83620006bb565b925082820190508082111562000ce55762000ce462000a94565b5b92915050565b600060208201905062000d02600083018462000b9d565b92915050565b7f4e487b7100000000000000000000000000000000000000000000000000000000600052605160045260246000fd5b611dc38062000d476000396000f3fe608060405234801561001057600080fd5b50600436106100f55760003560e01c8063715018a611610097578063a457c2d711610066578063a457c2d714610276578063a9059cbb146102a6578063dd62ed3e146102d6578063f2fde38b14610306576100f5565b8063715018a6146102145780638da5cb5b1461021e57806392eefe9b1461023c57806395d89b4114610258576100f5565b806323b872dd116100d357806323b872dd14610166578063313ce5671461019657806339509351146101b457806370a08231146101e4576100f5565b806306fdde03146100fa578063095ea7b31461011857806318160ddd14610148575b600080fd5b610102610322565b60405161010f91906113ad565b60405180910390f35b610132600480360381019061012d9190611468565b6103b4565b60405161013f91906114c3565b60405180910390f35b61015061042d565b60405161015d91906114ed565b60405180910390f35b610180600480360381019061017b9190611508565b610437565b60405161018d91906114c3565b60405180910390f35b61019e610498565b6040516101ab9190611577565b60405180910390f35b6101ce60048036038101906101c99190611468565b6104a1565b6040516101db91906114c3565b60405180910390f35b6101fe60048036038101906101f99190611592565b61054d565b60405161020b91906114ed565b60405180910390f35b61021c610595565b005b61022661061d565b60405161023391906115ce565b60405180910390f35b61025660048036038101906102519190611592565b610647565b005b610260610746565b60405161026d91906113ad565b60405180910390f35b610290600480360381019061028b9190611468565b6107d8565b60405161029d91906114c3565b60405180910390f35b6102c060048036038101906102bb9190611468565b6108c3565b6040516102cd91906114c3565b60405180910390f35b6102f060048036038101906102eb91906115e9565b610944565b6040516102fd91906114ed565b60405180910390f35b610320600480360381019061031b9190611592565b6109cb565b005b60606003805461033190611658565b80601f016020809104026020016040519081016040528092919081815260200182805461035d90611658565b80156103aa5780601f1061037f576101008083540402835291602001916103aa565b820191906000526020600020905b81548152906001019060200180831161038d57829003601f168201915b5050505050905090565b60008273ffffffffffffffffffffffffffffffffffffffff163373ffffffffffffffffffffffffffffffffffffffff167fe796c78d74e5be0dfc07b7480e00d6cdddedf39b568b6768cc6686d034fab6e98460405161041391906114ed565b60405180910390a36104258383610ae3565b905092915050565b6000600254905090565b600061044284610b01565b610481576040517f08c379a0000000000000000000000000000000000000000000000000000000008152600401610478906116fb565b60405180910390fd5b61048c848484610c1c565b50600190509392505050565b60006012905090565b60006105436104ae610d14565b8484600160006104bc610d14565b73ffffffffffffffffffffffffffffffffffffffff1673ffffffffffffffffffffffffffffffffffffffff16815260200190815260200160002060008873ffffffffffffffffffffffffffffffffffffffff1673ffffffffffffffffffffffffffffffffffffffff1681526020019081526020016000205461053e919061174a565b610d1c565b6001905092915050565b60008060008373ffffffffffffffffffffffffffffffffffffffff1673ffffffffffffffffffffffffffffffffffffffff168152602001908152602001600020549050919050565b61059d610d14565b73ffffffffffffffffffffffffffffffffffffffff166105bb61061d565b73ffffffffffffffffffffffffffffffffffffffff1614610611576040517f08c379a0000000000000000000000000000000000000000000000000000000008152600401610608906117ca565b60405180910390fd5b61061b6000610ee5565b565b6000600560009054906101000a900473ffffffffffffffffffffffffffffffffffffffff16905090565b61064f610d14565b73ffffffffffffffffffffffffffffffffffffffff1661066d61061d565b73ffffffffffffffffffffffffffffffffffffffff16146106c3576040517f08c379a00000000000000000000000000000000000000000000000000000000081526004016106ba906117ca565b60405180910390fd5b80600860006101000a81548173ffffffffffffffffffffffffffffffffffffffff021916908373ffffffffffffffffffffffffffffffffffffffff1602179055506107436040518060400160405280601181526020017f436f6e74726f6c6c65722073657420746f00000000000000000000000000000081525082610fab565b50565b60606004805461075590611658565b80601f016020809104026020016040519081016040528092919081815260200182805461078190611658565b80156107ce5780601f106107a3576101008083540402835291602001916107ce565b820191906000526020600020905b8154815290600101906020018083116107b157829003601f168201915b5050505050905090565b600080600160006107e7610d14565b73ffffffffffffffffffffffffffffffffffffffff1673ffffffffffffffffffffffffffffffffffffffff16815260200190815260200160002060008573ffffffffffffffffffffffffffffffffffffffff1673ffffffffffffffffffffffffffffffffffffffff168152602001908152602001600020549050828110156108a4576040517f08c379a000000000000000000000000000000000000000000000000000000000815260040161089b9061185c565b60405180910390fd5b6108b86108af610d14565b85858403610d1c565b600191505092915050565b60006108ce33610b01565b61090d576040517f08c379a0000000000000000000000000000000000000000000000000000000008152600401610904906118ee565b60405180910390fd5b61092f604051806060016040528060228152602001611d6c6022913933610fab565b6109398383611047565b506001905092915050565b6000600160008473ffffffffffffffffffffffffffffffffffffffff1673ffffffffffffffffffffffffffffffffffffffff16815260200190815260200160002060008373ffffffffffffffffffffffffffffffffffffffff1673ffffffffffffffffffffffffffffffffffffffff16815260200190815260200160002054905092915050565b6109d3610d14565b73ffffffffffffffffffffffffffffffffffffffff166109f161061d565b73ffffffffffffffffffffffffffffffffffffffff1614610a47576040517f08c379a0000000000000000000000000000000000000000000000000000000008152600401610a3e906117ca565b60405180910390fd5b600073ffffffffffffffffffffffffffffffffffffffff168173ffffffffffffffffffffffffffffffffffffffff1603610ab6576040517f08c379a0000000000000000000000000000000000000000000000000000000008152600401610aad90611980565b60405180910390fd5b610abf81610ee5565b50565b60006a636f6e736f6c652e6c6f679050600080835160208501845afa505050565b6000610af7610af0610d14565b8484610d1c565b6001905092915050565b6000600660009054906101000a900473ffffffffffffffffffffffffffffffffffffffff1673ffffffffffffffffffffffffffffffffffffffff168273ffffffffffffffffffffffffffffffffffffffff161480610bac5750600760009054906101000a900473ffffffffffffffffffffffffffffffffffffffff1673ffffffffffffffffffffffffffffffffffffffff168273ffffffffffffffffffffffffffffffffffffffff16145b80610c045750600860009054906101000a900473ffffffffffffffffffffffffffffffffffffffff1673ffffffffffffffffffffffffffffffffffffffff168273ffffffffffffffffffffffffffffffffffffffff16145b15610c125760019050610c17565b600090505b919050565b6000610c29848484611065565b6000600160008673ffffffffffffffffffffffffffffffffffffffff1673ffffffffffffffffffffffffffffffffffffffff1681526020019081526020016000206000610c74610d14565b73ffffffffffffffffffffffffffffffffffffffff1673ffffffffffffffffffffffffffffffffffffffff16815260200190815260200160002054905082811015610cf4576040517f08c379a0000000000000000000000000000000000000000000000000000000008152600401610ceb90611a12565b60405180910390fd5b610d0885610d00610d14565b858403610d1c565b60019150509392505050565b600033905090565b600073ffffffffffffffffffffffffffffffffffffffff168373ffffffffffffffffffffffffffffffffffffffff1603610d8b576040517f08c379a0000000000000000000000000000000000000000000000000000000008152600401610d8290611aa4565b60405180910390fd5b600073ffffffffffffffffffffffffffffffffffffffff168273ffffffffffffffffffffffffffffffffffffffff1603610dfa576040517f08c379a0000000000000000000000000000000000000000000000000000000008152600401610df190611b36565b60405180910390fd5b80600160008573ffffffffffffffffffffffffffffffffffffffff1673ffffffffffffffffffffffffffffffffffffffff16815260200190815260200160002060008473ffffffffffffffffffffffffffffffffffffffff1673ffffffffffffffffffffffffffffffffffffffff168152602001908152602001600020819055508173ffffffffffffffffffffffffffffffffffffffff168373ffffffffffffffffffffffffffffffffffffffff167f8c5be1e5ebec7d5bd14f71427d1e84f3dd0314c0f7b2291e5b200ac8c7c3b92583604051610ed891906114ed565b60405180910390a3505050565b6000600560009054906101000a900473ffffffffffffffffffffffffffffffffffffffff16905081600560006101000a81548173ffffffffffffffffffffffffffffffffffffffff021916908373ffffffffffffffffffffffffffffffffffffffff1602179055508173ffffffffffffffffffffffffffffffffffffffff168173ffffffffffffffffffffffffffffffffffffffff167f8be0079c531659141344cd1fd0a4f28419497f9722a3daafe3b4186f6b6457e060405160405180910390a35050565b6110438282604051602401610fc1929190611b56565b6040516020818303038152906040527f319af333000000000000000000000000000000000000000000000000000000007bffffffffffffffffffffffffffffffffffffffffffffffffffffffff19166020820180517bffffffffffffffffffffffffffffffffffffffffffffffffffffffff83818316178352505050506112e4565b5050565b600061105b611054610d14565b8484611065565b6001905092915050565b600073ffffffffffffffffffffffffffffffffffffffff168373ffffffffffffffffffffffffffffffffffffffff16036110d4576040517f08c379a00000000000000000000000000000000000000000000000000000000081526004016110cb90611bf8565b60405180910390fd5b600073ffffffffffffffffffffffffffffffffffffffff168273ffffffffffffffffffffffffffffffffffffffff1603611143576040517f08c379a000000000000000000000000000000000000000000000000000000000815260040161113a90611c8a565b60405180910390fd5b61114e8383836112fe565b60008060008573ffffffffffffffffffffffffffffffffffffffff1673ffffffffffffffffffffffffffffffffffffffff168152602001908152602001600020549050818110156111d4576040517f08c379a00000000000000000000000000000000000000000000000000000000081526004016111cb90611d1c565b60405180910390fd5b8181036000808673ffffffffffffffffffffffffffffffffffffffff1673ffffffffffffffffffffffffffffffffffffffff16815260200190815260200160002081905550816000808573ffffffffffffffffffffffffffffffffffffffff1673ffffffffffffffffffffffffffffffffffffffff1681526020019081526020016000206000828254611267919061174a565b925050819055508273ffffffffffffffffffffffffffffffffffffffff168473ffffffffffffffffffffffffffffffffffffffff167fddf252ad1be2c89b69c2b068fc378daa952ba7f163c4a11628f55a4df523b3ef846040516112cb91906114ed565b60405180910390a36112de848484611303565b50505050565b6112fb816112f3610ac2611308565b63ffffffff16565b50565b505050565b505050565b611313819050919050565b61131b611d3c565b565b600081519050919050565b600082825260208201905092915050565b60005b8381101561135757808201518184015260208101905061133c565b60008484015250505050565b6000601f19601f8301169050919050565b600061137f8261131d565b6113898185611328565b9350611399818560208601611339565b6113a281611363565b840191505092915050565b600060208201905081810360008301526113c78184611374565b905092915050565b600080fd5b600073ffffffffffffffffffffffffffffffffffffffff82169050919050565b60006113ff826113d4565b9050919050565b61140f816113f4565b811461141a57600080fd5b50565b60008135905061142c81611406565b92915050565b6000819050919050565b61144581611432565b811461145057600080fd5b50565b6000813590506114628161143c565b92915050565b6000806040838503121561147f5761147e6113cf565b5b600061148d8582860161141d565b925050602061149e85828601611453565b9150509250929050565b60008115159050919050565b6114bd816114a8565b82525050565b60006020820190506114d860008301846114b4565b92915050565b6114e781611432565b82525050565b600060208201905061150260008301846114de565b92915050565b600080600060608486031215611521576115206113cf565b5b600061152f8682870161141d565b93505060206115408682870161141d565b925050604061155186828701611453565b9150509250925092565b600060ff82169050919050565b6115718161155b565b82525050565b600060208201905061158c6000830184611568565b92915050565b6000602082840312156115a8576115a76113cf565b5b60006115b68482850161141d565b91505092915050565b6115c8816113f4565b82525050565b60006020820190506115e360008301846115bf565b92915050565b60008060408385031215611600576115ff6113cf565b5b600061160e8582860161141d565b925050602061161f8582860161141d565b9150509250929050565b7f4e487b7100000000000000000000000000000000000000000000000000000000600052602260045260246000fd5b6000600282049050600182168061167057607f821691505b60208210810361168357611682611629565b5b50919050565b7f5472616e73666572206f6e6c79207065726d69747465642066726f6d2064657060008201527f6c6f796572206f72207661756c74000000000000000000000000000000000000602082015250565b60006116e5602e83611328565b91506116f082611689565b604082019050919050565b60006020820190508181036000830152611714816116d8565b9050919050565b7f4e487b7100000000000000000000000000000000000000000000000000000000600052601160045260246000fd5b600061175582611432565b915061176083611432565b92508282019050808211156117785761177761171b565b5b92915050565b7f4f776e61626c653a2063616c6c6572206973206e6f7420746865206f776e6572600082015250565b60006117b4602083611328565b91506117bf8261177e565b602082019050919050565b600060208201905081810360008301526117e3816117a7565b9050919050565b7f45524332303a2064656372656173656420616c6c6f77616e63652062656c6f7760008201527f207a65726f000000000000000000000000000000000000000000000000000000602082015250565b6000611846602583611328565b9150611851826117ea565b604082019050919050565b6000602082019050818103600083015261187581611839565b9050919050565b7f5472616e73666572207065726d6974746564206f6e6c792066726f6d20746f6b60008201527f656e206465706c6f7965722c20636f6e74726f6c6c6572206f72207661756c74602082015250565b60006118d8604083611328565b91506118e38261187c565b604082019050919050565b60006020820190508181036000830152611907816118cb565b9050919050565b7f4f776e61626c653a206e6577206f776e657220697320746865207a65726f206160008201527f6464726573730000000000000000000000000000000000000000000000000000602082015250565b600061196a602683611328565b91506119758261190e565b604082019050919050565b600060208201905081810360008301526119998161195d565b9050919050565b7f45524332303a207472616e7366657220616d6f756e742065786365656473206160008201527f6c6c6f77616e6365000000000000000000000000000000000000000000000000602082015250565b60006119fc602883611328565b9150611a07826119a0565b604082019050919050565b60006020820190508181036000830152611a2b816119ef565b9050919050565b7f45524332303a20617070726f76652066726f6d20746865207a65726f2061646460008201527f7265737300000000000000000000000000000000000000000000000000000000602082015250565b6000611a8e602483611328565b9150611a9982611a32565b604082019050919050565b60006020820190508181036000830152611abd81611a81565b9050919050565b7f45524332303a20617070726f766520746f20746865207a65726f20616464726560008201527f7373000000000000000000000000000000000000000000000000000000000000602082015250565b6000611b20602283611328565b9150611b2b82611ac4565b604082019050919050565b60006020820190508181036000830152611b4f81611b13565b9050919050565b60006040820190508181036000830152611b708185611374565b9050611b7f60208301846115bf565b9392505050565b7f45524332303a207472616e736665722066726f6d20746865207a65726f20616460008201527f6472657373000000000000000000000000000000000000000000000000000000602082015250565b6000611be2602583611328565b9150611bed82611b86565b604082019050919050565b60006020820190508181036000830152611c1181611bd5565b9050919050565b7f45524332303a207472616e7366657220746f20746865207a65726f206164647260008201527f6573730000000000000000000000000000000000000000000000000000000000602082015250565b6000611c74602383611328565b9150611c7f82611c18565b604082019050919050565b60006020820190508181036000830152611ca381611c67565b9050919050565b7f45524332303a207472616e7366657220616d6f756e742065786365656473206260008201527f616c616e63650000000000000000000000000000000000000000000000000000602082015250565b6000611d06602683611328565b9150611d1182611caa565b604082019050919050565b60006020820190508181036000830152611d3581611cf9565b9050919050565b7f4e487b7100000000000000000000000000000000000000000000000000000000600052605160045260246000fdfe207472616e736665722063616c6c2066726f6d206d73672e73656e646572203d3d3ea2646970667358221220f2b5670ed11f27920b4b11d7a655d7d056384aa213b4a29b7e07a071987d743364736f6c634300081400334465706c6f79696e672061206d61726b6574546f6b656e207769746820696e697469616c20737570706c79206f66f09f92b8f09f92b8f09f92b84d494e542d4452415720544f4b454ef09f92b8f09f92b8f09f92b8",
  "linkReferences": {},
  "deployedLinkReferences": {}
}