{
  "_format": "hh-sol-artifact-1",
  "contractName": "DrawToken",
  "sourceName": "contracts/DrawToken.sol",
  "abi": [
    {
      "inputs": [
        {
          "internalType": "address",
          "name": "_vault",
          "type": "address"
        },
        {
          "internalType": "uint256",
          "name": "amount",
          "type": "uint256"
        }
      ],
      "stateMutability": "nonpayable",
      "type": "constructor"
    },
    {
      "anonymous": false,
      "inputs": [
        {
          "indexed": true,
          "internalType": "address",
          "name": "owner",
          "type": "address"
        },
        {
          "indexed": true,
          "internalType": "address",
          "name": "spender",
          "type": "address"
        },
        {
          "indexed": false,
          "internalType": "uint256",
          "name": "value",
          "type": "uint256"
        }
      ],
      "name": "Approval",
      "type": "event"
    },
    {
      "anonymous": false,
      "inputs": [
        {
          "indexed": true,
          "internalType": "address",
          "name": "owner",
          "type": "address"
        },
        {
          "indexed": true,
          "internalType": "address",
          "name": "spender",
          "type": "address"
        },
        {
          "indexed": false,
          "internalType": "uint256",
          "name": "value",
          "type": "uint256"
        }
      ],
      "name": "DrawTokenApproved",
      "type": "event"
    },
    {
      "anonymous": false,
      "inputs": [
        {
          "indexed": true,
          "internalType": "address",
          "name": "previousOwner",
          "type": "address"
        },
        {
          "indexed": true,
          "internalType": "address",
          "name": "newOwner",
          "type": "address"
        }
      ],
      "name": "OwnershipTransferred",
      "type": "event"
    },
    {
      "anonymous": false,
      "inputs": [
        {
          "indexed": true,
          "internalType": "address",
          "name": "to",
          "type": "address"
        },
        {
          "indexed": false,
          "internalType": "uint256",
          "name": "value",
          "type": "uint256"
        }
      ],
      "name": "TokenTransfer",
      "type": "event"
    },
    {
      "anonymous": false,
      "inputs": [
        {
          "indexed": true,
          "internalType": "address",
          "name": "from",
          "type": "address"
        },
        {
          "indexed": true,
          "internalType": "address",
          "name": "to",
          "type": "address"
        },
        {
          "indexed": false,
          "internalType": "uint256",
          "name": "value",
          "type": "uint256"
        }
      ],
      "name": "TokenTransferFrom",
      "type": "event"
    },
    {
      "anonymous": false,
      "inputs": [
        {
          "indexed": true,
          "internalType": "address",
          "name": "from",
          "type": "address"
        },
        {
          "indexed": true,
          "internalType": "address",
          "name": "to",
          "type": "address"
        },
        {
          "indexed": false,
          "internalType": "uint256",
          "name": "value",
          "type": "uint256"
        }
      ],
      "name": "Transfer",
      "type": "event"
    },
    {
      "inputs": [
        {
          "internalType": "address",
          "name": "owner",
          "type": "address"
        },
        {
          "internalType": "address",
          "name": "spender",
          "type": "address"
        }
      ],
      "name": "allowance",
      "outputs": [
        {
          "internalType": "uint256",
          "name": "",
          "type": "uint256"
        }
      ],
      "stateMutability": "view",
      "type": "function"
    },
    {
      "inputs": [
        {
          "internalType": "address",
          "name": "spender",
          "type": "address"
        },
        {
          "internalType": "uint256",
          "name": "amount",
          "type": "uint256"
        }
      ],
      "name": "approve",
      "outputs": [
        {
          "internalType": "bool",
          "name": "",
          "type": "bool"
        }
      ],
      "stateMutability": "nonpayable",
      "type": "function"
    },
    {
      "inputs": [
        {
          "internalType": "address",
          "name": "account",
          "type": "address"
        }
      ],
      "name": "balanceOf",
      "outputs": [
        {
          "internalType": "uint256",
          "name": "",
          "type": "uint256"
        }
      ],
      "stateMutability": "view",
      "type": "function"
    },
    {
      "inputs": [],
      "name": "decimals",
      "outputs": [
        {
          "internalType": "uint8",
          "name": "",
          "type": "uint8"
        }
      ],
      "stateMutability": "view",
      "type": "function"
    },
    {
      "inputs": [
        {
          "internalType": "address",
          "name": "spender",
          "type": "address"
        },
        {
          "internalType": "uint256",
          "name": "subtractedValue",
          "type": "uint256"
        }
      ],
      "name": "decreaseAllowance",
      "outputs": [
        {
          "internalType": "bool",
          "name": "",
          "type": "bool"
        }
      ],
      "stateMutability": "nonpayable",
      "type": "function"
    },
    {
      "inputs": [
        {
          "internalType": "address",
          "name": "spender",
          "type": "address"
        },
        {
          "internalType": "uint256",
          "name": "addedValue",
          "type": "uint256"
        }
      ],
      "name": "increaseAllowance",
      "outputs": [
        {
          "internalType": "bool",
          "name": "",
          "type": "bool"
        }
      ],
      "stateMutability": "nonpayable",
      "type": "function"
    },
    {
      "inputs": [],
      "name": "name",
      "outputs": [
        {
          "internalType": "string",
          "name": "",
          "type": "string"
        }
      ],
      "stateMutability": "view",
      "type": "function"
    },
    {
      "inputs": [],
      "name": "owner",
      "outputs": [
        {
          "internalType": "address",
          "name": "",
          "type": "address"
        }
      ],
      "stateMutability": "view",
      "type": "function"
    },
    {
      "inputs": [],
      "name": "renounceOwnership",
      "outputs": [],
      "stateMutability": "nonpayable",
      "type": "function"
    },
    {
      "inputs": [
        {
          "internalType": "address",
          "name": "_controller",
          "type": "address"
        }
      ],
      "name": "setController",
      "outputs": [],
      "stateMutability": "nonpayable",
      "type": "function"
    },
    {
      "inputs": [],
      "name": "symbol",
      "outputs": [
        {
          "internalType": "string",
          "name": "",
          "type": "string"
        }
      ],
      "stateMutability": "view",
      "type": "function"
    },
    {
      "inputs": [],
      "name": "totalSupply",
      "outputs": [
        {
          "internalType": "uint256",
          "name": "",
          "type": "uint256"
        }
      ],
      "stateMutability": "view",
      "type": "function"
    },
    {
      "inputs": [
        {
          "internalType": "address",
          "name": "_to",
          "type": "address"
        },
        {
          "internalType": "uint256",
          "name": "_value",
          "type": "uint256"
        }
      ],
      "name": "transfer",
      "outputs": [
        {
          "internalType": "bool",
          "name": "",
          "type": "bool"
        }
      ],
      "stateMutability": "nonpayable",
      "type": "function"
    },
    {
      "inputs": [
        {
          "internalType": "address",
          "name": "_from",
          "type": "address"
        },
        {
          "internalType": "address",
          "name": "_to",
          "type": "address"
        },
        {
          "internalType": "uint256",
          "name": "_value",
          "type": "uint256"
        }
      ],
      "name": "transferFrom",
      "outputs": [
        {
          "internalType": "bool",
          "name": "",
          "type": "bool"
        }
      ],
      "stateMutability": "nonpayable",
      "type": "function"
    },
    {
      "inputs": [
        {
          "internalType": "address",
          "name": "newOwner",
          "type": "address"
        }
      ],
      "name": "transferOwnership",
      "outputs": [],
      "stateMutability": "nonpayable",
      "type": "function"
    }
  ],
  "bytecode": "0x60806040523480156200001157600080fd5b5060405162002c1238038062002c128339818101604052810190620000379190620006f6565b6040518060400160405280600981526020017f44726177546f6b656e00000000000000000000000000000000000000000000008152506040518060400160405280600281526020017f44540000000000000000000000000000000000000000000000000000000000008152508160039081620000b49190620009ad565b508060049081620000c69190620009ad565b505050620000e9620000dd6200024860201b60201c565b6200025060201b60201c565b6200012e60405180606001604052806027815260200162002beb602791396040518060600160405280602e815260200162002bbd602e9139836200031660201b60201c565b33600660006101000a81548173ffffffffffffffffffffffffffffffffffffffff021916908373ffffffffffffffffffffffffffffffffffffffff16021790555081600760006101000a81548173ffffffffffffffffffffffffffffffffffffffff021916908373ffffffffffffffffffffffffffffffffffffffff160217905550620002196040518060400160405280601b81526020017f4472617720546f6b656e206465706c6f79657220616464726573730000000000815250600660009054906101000a900473ffffffffffffffffffffffffffffffffffffffff16620003bf60201b60201c565b6200024033670de0b6b3a76400008362000234919062000ac3565b6200046560201b60201c565b505062000d37565b600033905090565b6000600560009054906101000a900473ffffffffffffffffffffffffffffffffffffffff16905081600560006101000a81548173ffffffffffffffffffffffffffffffffffffffff021916908373ffffffffffffffffffffffffffffffffffffffff1602179055508173ffffffffffffffffffffffffffffffffffffffff168173ffffffffffffffffffffffffffffffffffffffff167f8be0079c531659141344cd1fd0a4f28419497f9722a3daafe3b4186f6b6457e060405160405180910390a35050565b620003ba838383604051602401620003319392919062000bae565b6040516020818303038152906040527f5821efa1000000000000000000000000000000000000000000000000000000007bffffffffffffffffffffffffffffffffffffffffffffffffffffffff19166020820180517bffffffffffffffffffffffffffffffffffffffffffffffffffffffff8381831617835250505050620005dd60201b60201c565b505050565b620004618282604051602401620003d892919062000c0a565b6040516020818303038152906040527f319af333000000000000000000000000000000000000000000000000000000007bffffffffffffffffffffffffffffffffffffffffffffffffffffffff19166020820180517bffffffffffffffffffffffffffffffffffffffffffffffffffffffff8381831617835250505050620005dd60201b60201c565b5050565b600073ffffffffffffffffffffffffffffffffffffffff168273ffffffffffffffffffffffffffffffffffffffff1603620004d7576040517f08c379a0000000000000000000000000000000000000000000000000000000008152600401620004ce9062000c8e565b60405180910390fd5b620004eb600083836200060660201b60201c565b8060026000828254620004ff919062000cb0565b92505081905550806000808473ffffffffffffffffffffffffffffffffffffffff1673ffffffffffffffffffffffffffffffffffffffff168152602001908152602001600020600082825462000556919062000cb0565b925050819055508173ffffffffffffffffffffffffffffffffffffffff16600073ffffffffffffffffffffffffffffffffffffffff167fddf252ad1be2c89b69c2b068fc378daa952ba7f163c4a11628f55a4df523b3ef83604051620005bd919062000ceb565b60405180910390a3620005d9600083836200060b60201b60201c565b5050565b6200060381620005fe6200061060201b62000b75176200063160201b60201c565b60201c565b50565b505050565b505050565b60006a636f6e736f6c652e6c6f679050600080835160208501845afa505050565b6200064560201b620013c617819050919050565b6200064f62000d08565b565b600080fd5b600073ffffffffffffffffffffffffffffffffffffffff82169050919050565b6000620006838262000656565b9050919050565b620006958162000676565b8114620006a157600080fd5b50565b600081519050620006b5816200068a565b92915050565b6000819050919050565b620006d081620006bb565b8114620006dc57600080fd5b50565b600081519050620006f081620006c5565b92915050565b6000806040838503121562000710576200070f62000651565b5b60006200072085828601620006a4565b92505060206200073385828601620006df565b9150509250929050565b600081519050919050565b7f4e487b7100000000000000000000000000000000000000000000000000000000600052604160045260246000fd5b7f4e487b7100000000000000000000000000000000000000000000000000000000600052602260045260246000fd5b60006002820490506001821680620007bf57607f821691505b602082108103620007d557620007d462000777565b5b50919050565b60008190508160005260206000209050919050565b60006020601f8301049050919050565b600082821b905092915050565b6000600883026200083f7fffffffffffffffffffffffffffffffffffffffffffffffffffffffffffffffff8262000800565b6200084b868362000800565b95508019841693508086168417925050509392505050565b6000819050919050565b60006200088e620008886200088284620006bb565b62000863565b620006bb565b9050919050565b6000819050919050565b620008aa836200086d565b620008c2620008b98262000895565b8484546200080d565b825550505050565b600090565b620008d9620008ca565b620008e68184846200089f565b505050565b5b818110156200090e5762000902600082620008cf565b600181019050620008ec565b5050565b601f8211156200095d576200092781620007db565b6200093284620007f0565b8101602085101562000942578190505b6200095a6200095185620007f0565b830182620008eb565b50505b505050565b600082821c905092915050565b6000620009826000198460080262000962565b1980831691505092915050565b60006200099d83836200096f565b9150826002028217905092915050565b620009b8826200073d565b67ffffffffffffffff811115620009d457620009d362000748565b5b620009e08254620007a6565b620009ed82828562000912565b600060209050601f83116001811462000a25576000841562000a10578287015190505b62000a1c85826200098f565b86555062000a8c565b601f19841662000a3586620007db565b60005b8281101562000a5f5784890151825560018201915060208501945060208101905062000a38565b8683101562000a7f578489015162000a7b601f8916826200096f565b8355505b6001600288020188555050505b505050505050565b7f4e487b7100000000000000000000000000000000000000000000000000000000600052601160045260246000fd5b600062000ad082620006bb565b915062000add83620006bb565b925082820262000aed81620006bb565b9150828204841483151762000b075762000b0662000a94565b5b5092915050565b600082825260208201905092915050565b60005b8381101562000b3f57808201518184015260208101905062000b22565b60008484015250505050565b6000601f19601f8301169050919050565b600062000b69826200073d565b62000b75818562000b0e565b935062000b8781856020860162000b1f565b62000b928162000b4b565b840191505092915050565b62000ba881620006bb565b82525050565b6000606082019050818103600083015262000bca818662000b5c565b9050818103602083015262000be0818562000b5c565b905062000bf1604083018462000b9d565b949350505050565b62000c048162000676565b82525050565b6000604082019050818103600083015262000c26818562000b5c565b905062000c37602083018462000bf9565b9392505050565b7f45524332303a206d696e7420746f20746865207a65726f206164647265737300600082015250565b600062000c76601f8362000b0e565b915062000c838262000c3e565b602082019050919050565b6000602082019050818103600083015262000ca98162000c67565b9050919050565b600062000cbd82620006bb565b915062000cca83620006bb565b925082820190508082111562000ce55762000ce462000a94565b5b92915050565b600060208201905062000d02600083018462000b9d565b92915050565b7f4e487b7100000000000000000000000000000000000000000000000000000000600052605160045260246000fd5b611e768062000d476000396000f3fe608060405234801561001057600080fd5b50600436106100f55760003560e01c8063715018a611610097578063a457c2d711610066578063a457c2d714610276578063a9059cbb146102a6578063dd62ed3e146102d6578063f2fde38b14610306576100f5565b8063715018a6146102145780638da5cb5b1461021e57806392eefe9b1461023c57806395d89b4114610258576100f5565b806323b872dd116100d357806323b872dd14610166578063313ce5671461019657806339509351146101b457806370a08231146101e4576100f5565b806306fdde03146100fa578063095ea7b31461011857806318160ddd14610148575b600080fd5b610102610322565b60405161010f9190611460565b60405180910390f35b610132600480360381019061012d919061151b565b6103b4565b60405161013f9190611576565b60405180910390f35b61015061042d565b60405161015d91906115a0565b60405180910390f35b610180600480360381019061017b91906115bb565b610437565b60405161018d9190611576565b60405180910390f35b61019e6104fd565b6040516101ab919061162a565b60405180910390f35b6101ce60048036038101906101c9919061151b565b610506565b6040516101db9190611576565b60405180910390f35b6101fe60048036038101906101f99190611645565b6105b2565b60405161020b91906115a0565b60405180910390f35b61021c6105fa565b005b610226610682565b6040516102339190611681565b60405180910390f35b61025660048036038101906102519190611645565b6106ac565b005b6102606107ab565b60405161026d9190611460565b60405180910390f35b610290600480360381019061028b919061151b565b61083d565b60405161029d9190611576565b60405180910390f35b6102c060048036038101906102bb919061151b565b610928565b6040516102cd9190611576565b60405180910390f35b6102f060048036038101906102eb919061169c565b6109f7565b6040516102fd91906115a0565b60405180910390f35b610320600480360381019061031b9190611645565b610a7e565b005b6060600380546103319061170b565b80601f016020809104026020016040519081016040528092919081815260200182805461035d9061170b565b80156103aa5780601f1061037f576101008083540402835291602001916103aa565b820191906000526020600020905b81548152906001019060200180831161038d57829003601f168201915b5050505050905090565b60008273ffffffffffffffffffffffffffffffffffffffff163373ffffffffffffffffffffffffffffffffffffffff167fe796c78d74e5be0dfc07b7480e00d6cdddedf39b568b6768cc6686d034fab6e98460405161041391906115a0565b60405180910390a36104258383610b96565b905092915050565b6000600254905090565b600061044284610bb4565b610481576040517f08c379a0000000000000000000000000000000000000000000000000000000008152600401610478906117ae565b60405180910390fd5b61048c848484610ccf565b508273ffffffffffffffffffffffffffffffffffffffff168473ffffffffffffffffffffffffffffffffffffffff167fc143a372ad8afe438d397ec9145da8edf856a704908e4a485c022f4efdef96ed846040516104ea91906115a0565b60405180910390a3600190509392505050565b60006012905090565b60006105a8610513610dc7565b848460016000610521610dc7565b73ffffffffffffffffffffffffffffffffffffffff1673ffffffffffffffffffffffffffffffffffffffff16815260200190815260200160002060008873ffffffffffffffffffffffffffffffffffffffff1673ffffffffffffffffffffffffffffffffffffffff168152602001908152602001600020546105a391906117fd565b610dcf565b6001905092915050565b60008060008373ffffffffffffffffffffffffffffffffffffffff1673ffffffffffffffffffffffffffffffffffffffff168152602001908152602001600020549050919050565b610602610dc7565b73ffffffffffffffffffffffffffffffffffffffff16610620610682565b73ffffffffffffffffffffffffffffffffffffffff1614610676576040517f08c379a000000000000000000000000000000000000000000000000000000000815260040161066d9061187d565b60405180910390fd5b6106806000610f98565b565b6000600560009054906101000a900473ffffffffffffffffffffffffffffffffffffffff16905090565b6106b4610dc7565b73ffffffffffffffffffffffffffffffffffffffff166106d2610682565b73ffffffffffffffffffffffffffffffffffffffff1614610728576040517f08c379a000000000000000000000000000000000000000000000000000000000815260040161071f9061187d565b60405180910390fd5b80600860006101000a81548173ffffffffffffffffffffffffffffffffffffffff021916908373ffffffffffffffffffffffffffffffffffffffff1602179055506107a86040518060400160405280601181526020017f436f6e74726f6c6c65722073657420746f0000000000000000000000000000008152508261105e565b50565b6060600480546107ba9061170b565b80601f01602080910402602001604051908101604052809291908181526020018280546107e69061170b565b80156108335780601f1061080857610100808354040283529160200191610833565b820191906000526020600020905b81548152906001019060200180831161081657829003601f168201915b5050505050905090565b6000806001600061084c610dc7565b73ffffffffffffffffffffffffffffffffffffffff1673ffffffffffffffffffffffffffffffffffffffff16815260200190815260200160002060008573ffffffffffffffffffffffffffffffffffffffff1673ffffffffffffffffffffffffffffffffffffffff16815260200190815260200160002054905082811015610909576040517f08c379a00000000000000000000000000000000000000000000000000000000081526004016109009061190f565b60405180910390fd5b61091d610914610dc7565b85858403610dcf565b600191505092915050565b600061093333610bb4565b610972576040517f08c379a0000000000000000000000000000000000000000000000000000000008152600401610969906119a1565b60405180910390fd5b610994604051806060016040528060228152602001611e1f602291393361105e565b61099e83836110fa565b508273ffffffffffffffffffffffffffffffffffffffff167f1d72140a7ccdb496bef50918d2598dd7edefb514f70e6d4beb528cbd16c80b7d836040516109e591906115a0565b60405180910390a26001905092915050565b6000600160008473ffffffffffffffffffffffffffffffffffffffff1673ffffffffffffffffffffffffffffffffffffffff16815260200190815260200160002060008373ffffffffffffffffffffffffffffffffffffffff1673ffffffffffffffffffffffffffffffffffffffff16815260200190815260200160002054905092915050565b610a86610dc7565b73ffffffffffffffffffffffffffffffffffffffff16610aa4610682565b73ffffffffffffffffffffffffffffffffffffffff1614610afa576040517f08c379a0000000000000000000000000000000000000000000000000000000008152600401610af19061187d565b60405180910390fd5b600073ffffffffffffffffffffffffffffffffffffffff168173ffffffffffffffffffffffffffffffffffffffff1603610b69576040517f08c379a0000000000000000000000000000000000000000000000000000000008152600401610b6090611a33565b60405180910390fd5b610b7281610f98565b50565b60006a636f6e736f6c652e6c6f679050600080835160208501845afa505050565b6000610baa610ba3610dc7565b8484610dcf565b6001905092915050565b6000600660009054906101000a900473ffffffffffffffffffffffffffffffffffffffff1673ffffffffffffffffffffffffffffffffffffffff168273ffffffffffffffffffffffffffffffffffffffff161480610c5f5750600760009054906101000a900473ffffffffffffffffffffffffffffffffffffffff1673ffffffffffffffffffffffffffffffffffffffff168273ffffffffffffffffffffffffffffffffffffffff16145b80610cb75750600860009054906101000a900473ffffffffffffffffffffffffffffffffffffffff1673ffffffffffffffffffffffffffffffffffffffff168273ffffffffffffffffffffffffffffffffffffffff16145b15610cc55760019050610cca565b600090505b919050565b6000610cdc848484611118565b6000600160008673ffffffffffffffffffffffffffffffffffffffff1673ffffffffffffffffffffffffffffffffffffffff1681526020019081526020016000206000610d27610dc7565b73ffffffffffffffffffffffffffffffffffffffff1673ffffffffffffffffffffffffffffffffffffffff16815260200190815260200160002054905082811015610da7576040517f08c379a0000000000000000000000000000000000000000000000000000000008152600401610d9e90611ac5565b60405180910390fd5b610dbb85610db3610dc7565b858403610dcf565b60019150509392505050565b600033905090565b600073ffffffffffffffffffffffffffffffffffffffff168373ffffffffffffffffffffffffffffffffffffffff1603610e3e576040517f08c379a0000000000000000000000000000000000000000000000000000000008152600401610e3590611b57565b60405180910390fd5b600073ffffffffffffffffffffffffffffffffffffffff168273ffffffffffffffffffffffffffffffffffffffff1603610ead576040517f08c379a0000000000000000000000000000000000000000000000000000000008152600401610ea490611be9565b60405180910390fd5b80600160008573ffffffffffffffffffffffffffffffffffffffff1673ffffffffffffffffffffffffffffffffffffffff16815260200190815260200160002060008473ffffffffffffffffffffffffffffffffffffffff1673ffffffffffffffffffffffffffffffffffffffff168152602001908152602001600020819055508173ffffffffffffffffffffffffffffffffffffffff168373ffffffffffffffffffffffffffffffffffffffff167f8c5be1e5ebec7d5bd14f71427d1e84f3dd0314c0f7b2291e5b200ac8c7c3b92583604051610f8b91906115a0565b60405180910390a3505050565b6000600560009054906101000a900473ffffffffffffffffffffffffffffffffffffffff16905081600560006101000a81548173ffffffffffffffffffffffffffffffffffffffff021916908373ffffffffffffffffffffffffffffffffffffffff1602179055508173ffffffffffffffffffffffffffffffffffffffff168173ffffffffffffffffffffffffffffffffffffffff167f8be0079c531659141344cd1fd0a4f28419497f9722a3daafe3b4186f6b6457e060405160405180910390a35050565b6110f68282604051602401611074929190611c09565b6040516020818303038152906040527f319af333000000000000000000000000000000000000000000000000000000007bffffffffffffffffffffffffffffffffffffffffffffffffffffffff19166020820180517bffffffffffffffffffffffffffffffffffffffffffffffffffffffff8381831617835250505050611397565b5050565b600061110e611107610dc7565b8484611118565b6001905092915050565b600073ffffffffffffffffffffffffffffffffffffffff168373ffffffffffffffffffffffffffffffffffffffff1603611187576040517f08c379a000000000000000000000000000000000000000000000000000000000815260040161117e90611cab565b60405180910390fd5b600073ffffffffffffffffffffffffffffffffffffffff168273ffffffffffffffffffffffffffffffffffffffff16036111f6576040517f08c379a00000000000000000000000000000000000000000000000000000000081526004016111ed90611d3d565b60405180910390fd5b6112018383836113b1565b60008060008573ffffffffffffffffffffffffffffffffffffffff1673ffffffffffffffffffffffffffffffffffffffff16815260200190815260200160002054905081811015611287576040517f08c379a000000000000000000000000000000000000000000000000000000000815260040161127e90611dcf565b60405180910390fd5b8181036000808673ffffffffffffffffffffffffffffffffffffffff1673ffffffffffffffffffffffffffffffffffffffff16815260200190815260200160002081905550816000808573ffffffffffffffffffffffffffffffffffffffff1673ffffffffffffffffffffffffffffffffffffffff168152602001908152602001600020600082825461131a91906117fd565b925050819055508273ffffffffffffffffffffffffffffffffffffffff168473ffffffffffffffffffffffffffffffffffffffff167fddf252ad1be2c89b69c2b068fc378daa952ba7f163c4a11628f55a4df523b3ef8460405161137e91906115a0565b60405180910390a36113918484846113b6565b50505050565b6113ae816113a6610b756113bb565b63ffffffff16565b50565b505050565b505050565b6113c6819050919050565b6113ce611def565b565b600081519050919050565b600082825260208201905092915050565b60005b8381101561140a5780820151818401526020810190506113ef565b60008484015250505050565b6000601f19601f8301169050919050565b6000611432826113d0565b61143c81856113db565b935061144c8185602086016113ec565b61145581611416565b840191505092915050565b6000602082019050818103600083015261147a8184611427565b905092915050565b600080fd5b600073ffffffffffffffffffffffffffffffffffffffff82169050919050565b60006114b282611487565b9050919050565b6114c2816114a7565b81146114cd57600080fd5b50565b6000813590506114df816114b9565b92915050565b6000819050919050565b6114f8816114e5565b811461150357600080fd5b50565b600081359050611515816114ef565b92915050565b6000806040838503121561153257611531611482565b5b6000611540858286016114d0565b925050602061155185828601611506565b9150509250929050565b60008115159050919050565b6115708161155b565b82525050565b600060208201905061158b6000830184611567565b92915050565b61159a816114e5565b82525050565b60006020820190506115b56000830184611591565b92915050565b6000806000606084860312156115d4576115d3611482565b5b60006115e2868287016114d0565b93505060206115f3868287016114d0565b925050604061160486828701611506565b9150509250925092565b600060ff82169050919050565b6116248161160e565b82525050565b600060208201905061163f600083018461161b565b92915050565b60006020828403121561165b5761165a611482565b5b6000611669848285016114d0565b91505092915050565b61167b816114a7565b82525050565b60006020820190506116966000830184611672565b92915050565b600080604083850312156116b3576116b2611482565b5b60006116c1858286016114d0565b92505060206116d2858286016114d0565b9150509250929050565b7f4e487b7100000000000000000000000000000000000000000000000000000000600052602260045260246000fd5b6000600282049050600182168061172357607f821691505b602082108103611736576117356116dc565b5b50919050565b7f5472616e73666572206f6e6c79207065726d69747465642066726f6d2064657060008201527f6c6f796572206f72207661756c74000000000000000000000000000000000000602082015250565b6000611798602e836113db565b91506117a38261173c565b604082019050919050565b600060208201905081810360008301526117c78161178b565b9050919050565b7f4e487b7100000000000000000000000000000000000000000000000000000000600052601160045260246000fd5b6000611808826114e5565b9150611813836114e5565b925082820190508082111561182b5761182a6117ce565b5b92915050565b7f4f776e61626c653a2063616c6c6572206973206e6f7420746865206f776e6572600082015250565b60006118676020836113db565b915061187282611831565b602082019050919050565b600060208201905081810360008301526118968161185a565b9050919050565b7f45524332303a2064656372656173656420616c6c6f77616e63652062656c6f7760008201527f207a65726f000000000000000000000000000000000000000000000000000000602082015250565b60006118f96025836113db565b91506119048261189d565b604082019050919050565b60006020820190508181036000830152611928816118ec565b9050919050565b7f5472616e73666572207065726d6974746564206f6e6c792066726f6d20746f6b60008201527f656e206465706c6f7965722c20636f6e74726f6c6c6572206f72207661756c74602082015250565b600061198b6040836113db565b91506119968261192f565b604082019050919050565b600060208201905081810360008301526119ba8161197e565b9050919050565b7f4f776e61626c653a206e6577206f776e657220697320746865207a65726f206160008201527f6464726573730000000000000000000000000000000000000000000000000000602082015250565b6000611a1d6026836113db565b9150611a28826119c1565b604082019050919050565b60006020820190508181036000830152611a4c81611a10565b9050919050565b7f45524332303a207472616e7366657220616d6f756e742065786365656473206160008201527f6c6c6f77616e6365000000000000000000000000000000000000000000000000602082015250565b6000611aaf6028836113db565b9150611aba82611a53565b604082019050919050565b60006020820190508181036000830152611ade81611aa2565b9050919050565b7f45524332303a20617070726f76652066726f6d20746865207a65726f2061646460008201527f7265737300000000000000000000000000000000000000000000000000000000602082015250565b6000611b416024836113db565b9150611b4c82611ae5565b604082019050919050565b60006020820190508181036000830152611b7081611b34565b9050919050565b7f45524332303a20617070726f766520746f20746865207a65726f20616464726560008201527f7373000000000000000000000000000000000000000000000000000000000000602082015250565b6000611bd36022836113db565b9150611bde82611b77565b604082019050919050565b60006020820190508181036000830152611c0281611bc6565b9050919050565b60006040820190508181036000830152611c238185611427565b9050611c326020830184611672565b9392505050565b7f45524332303a207472616e736665722066726f6d20746865207a65726f20616460008201527f6472657373000000000000000000000000000000000000000000000000000000602082015250565b6000611c956025836113db565b9150611ca082611c39565b604082019050919050565b60006020820190508181036000830152611cc481611c88565b9050919050565b7f45524332303a207472616e7366657220746f20746865207a65726f206164647260008201527f6573730000000000000000000000000000000000000000000000000000000000602082015250565b6000611d276023836113db565b9150611d3282611ccb565b604082019050919050565b60006020820190508181036000830152611d5681611d1a565b9050919050565b7f45524332303a207472616e7366657220616d6f756e742065786365656473206260008201527f616c616e63650000000000000000000000000000000000000000000000000000602082015250565b6000611db96026836113db565b9150611dc482611d5d565b604082019050919050565b60006020820190508181036000830152611de881611dac565b9050919050565b7f4e487b7100000000000000000000000000000000000000000000000000000000600052605160045260246000fdfe207472616e736665722063616c6c2066726f6d206d73672e73656e646572203d3d3ea264697066735822122023cbe4d838d409bcdb9f44a72897a08ae6ad7354e2b5121687bebbc3c4817d8f64736f6c634300081400334465706c6f79696e672061206d61726b6574546f6b656e207769746820696e697469616c20737570706c79206f66f09f92b8f09f92b8f09f92b84d494e542d4452415720544f4b454ef09f92b8f09f92b8f09f92b8",
  "linkReferences": {},
  "deployedLinkReferences": {}
}