{
  "_format": "hh-sol-artifact-1",
  "contractName": "PlayerBToken",
  "sourceName": "contracts/PlayerBToken.sol",
  "abi": [
    {
      "inputs": [
        {
          "internalType": "uint256",
          "name": "amount",
          "type": "uint256"
        }
      ],
      "stateMutability": "nonpayable",
      "type": "constructor"
    },
    {
      "inputs": [
        {
          "internalType": "address",
          "name": "spender",
          "type": "address"
        },
        {
          "internalType": "uint256",
          "name": "allowance",
          "type": "uint256"
        },
        {
          "internalType": "uint256",
          "name": "needed",
          "type": "uint256"
        }
      ],
      "name": "ERC20InsufficientAllowance",
      "type": "error"
    },
    {
      "inputs": [
        {
          "internalType": "address",
          "name": "sender",
          "type": "address"
        },
        {
          "internalType": "uint256",
          "name": "balance",
          "type": "uint256"
        },
        {
          "internalType": "uint256",
          "name": "needed",
          "type": "uint256"
        }
      ],
      "name": "ERC20InsufficientBalance",
      "type": "error"
    },
    {
      "inputs": [
        {
          "internalType": "address",
          "name": "approver",
          "type": "address"
        }
      ],
      "name": "ERC20InvalidApprover",
      "type": "error"
    },
    {
      "inputs": [
        {
          "internalType": "address",
          "name": "receiver",
          "type": "address"
        }
      ],
      "name": "ERC20InvalidReceiver",
      "type": "error"
    },
    {
      "inputs": [
        {
          "internalType": "address",
          "name": "sender",
          "type": "address"
        }
      ],
      "name": "ERC20InvalidSender",
      "type": "error"
    },
    {
      "inputs": [
        {
          "internalType": "address",
          "name": "spender",
          "type": "address"
        }
      ],
      "name": "ERC20InvalidSpender",
      "type": "error"
    },
    {
      "anonymous": false,
      "inputs": [
        {
          "indexed": true,
          "internalType": "address",
          "name": "owner",
          "type": "address"
        },
        {
          "indexed": true,
          "internalType": "address",
          "name": "spender",
          "type": "address"
        },
        {
          "indexed": false,
          "internalType": "uint256",
          "name": "value",
          "type": "uint256"
        }
      ],
      "name": "Approval",
      "type": "event"
    },
    {
      "anonymous": false,
      "inputs": [
        {
          "indexed": true,
          "internalType": "address",
          "name": "owner",
          "type": "address"
        },
        {
          "indexed": true,
          "internalType": "address",
          "name": "spender",
          "type": "address"
        },
        {
          "indexed": false,
          "internalType": "uint256",
          "name": "value",
          "type": "uint256"
        }
      ],
      "name": "PlayerBTokenApproved",
      "type": "event"
    },
    {
      "anonymous": false,
      "inputs": [
        {
          "indexed": true,
          "internalType": "address",
          "name": "from",
          "type": "address"
        },
        {
          "indexed": true,
          "internalType": "address",
          "name": "to",
          "type": "address"
        },
        {
          "indexed": false,
          "internalType": "uint256",
          "name": "value",
          "type": "uint256"
        }
      ],
      "name": "Transfer",
      "type": "event"
    },
    {
      "inputs": [
        {
          "internalType": "address",
          "name": "owner",
          "type": "address"
        },
        {
          "internalType": "address",
          "name": "spender",
          "type": "address"
        }
      ],
      "name": "allowance",
      "outputs": [
        {
          "internalType": "uint256",
          "name": "",
          "type": "uint256"
        }
      ],
      "stateMutability": "view",
      "type": "function"
    },
    {
      "inputs": [
        {
          "internalType": "address",
          "name": "spender",
          "type": "address"
        },
        {
          "internalType": "uint256",
          "name": "amount",
          "type": "uint256"
        }
      ],
      "name": "approve",
      "outputs": [
        {
          "internalType": "bool",
          "name": "",
          "type": "bool"
        }
      ],
      "stateMutability": "nonpayable",
      "type": "function"
    },
    {
      "inputs": [
        {
          "internalType": "address",
          "name": "account",
          "type": "address"
        }
      ],
      "name": "balanceOf",
      "outputs": [
        {
          "internalType": "uint256",
          "name": "",
          "type": "uint256"
        }
      ],
      "stateMutability": "view",
      "type": "function"
    },
    {
      "inputs": [
        {
          "internalType": "address",
          "name": "account",
          "type": "address"
        }
      ],
      "name": "checkBalance",
      "outputs": [
        {
          "internalType": "uint256",
          "name": "",
          "type": "uint256"
        }
      ],
      "stateMutability": "view",
      "type": "function"
    },
    {
      "inputs": [],
      "name": "decimals",
      "outputs": [
        {
          "internalType": "uint8",
          "name": "",
          "type": "uint8"
        }
      ],
      "stateMutability": "view",
      "type": "function"
    },
    {
      "inputs": [],
      "name": "name",
      "outputs": [
        {
          "internalType": "string",
          "name": "",
          "type": "string"
        }
      ],
      "stateMutability": "view",
      "type": "function"
    },
    {
      "inputs": [],
      "name": "symbol",
      "outputs": [
        {
          "internalType": "string",
          "name": "",
          "type": "string"
        }
      ],
      "stateMutability": "view",
      "type": "function"
    },
    {
      "inputs": [],
      "name": "totalSupply",
      "outputs": [
        {
          "internalType": "uint256",
          "name": "",
          "type": "uint256"
        }
      ],
      "stateMutability": "view",
      "type": "function"
    },
    {
      "inputs": [
        {
          "internalType": "address",
          "name": "to",
          "type": "address"
        },
        {
          "internalType": "uint256",
          "name": "value",
          "type": "uint256"
        }
      ],
      "name": "transfer",
      "outputs": [
        {
          "internalType": "bool",
          "name": "",
          "type": "bool"
        }
      ],
      "stateMutability": "nonpayable",
      "type": "function"
    },
    {
      "inputs": [
        {
          "internalType": "address",
          "name": "from",
          "type": "address"
        },
        {
          "internalType": "address",
          "name": "to",
          "type": "address"
        },
        {
          "internalType": "uint256",
          "name": "value",
          "type": "uint256"
        }
      ],
      "name": "transferFrom",
      "outputs": [
        {
          "internalType": "bool",
          "name": "",
          "type": "bool"
        }
      ],
      "stateMutability": "nonpayable",
      "type": "function"
    }
  ],
  "bytecode": "0x60806040523480156200001157600080fd5b5060405162001b3c38038062001b3c83398181016040528101906200003791906200054c565b6040518060400160405280600781526020017f506c6179657242000000000000000000000000000000000000000000000000008152506040518060400160405280600281526020017f50420000000000000000000000000000000000000000000000000000000000008152508160039081620000b49190620007ee565b508060049081620000c69190620007ee565b5050506200010e60405180606001604052806025815260200162001b176025913960405180606001604052806032815260200162001ae560329139836200013c60201b60201c565b6200013533670de0b6b3a76400008362000129919062000904565b620001e560201b60201c565b5062000b60565b620001e08383836040516024016200015793929190620009ef565b6040516020818303038152906040527f5821efa1000000000000000000000000000000000000000000000000000000007bffffffffffffffffffffffffffffffffffffffffffffffffffffffff19166020820180517bffffffffffffffffffffffffffffffffffffffffffffffffffffffff83818316178352505050506200027260201b60201c565b505050565b600073ffffffffffffffffffffffffffffffffffffffff168273ffffffffffffffffffffffffffffffffffffffff16036200025a5760006040517fec442f0500000000000000000000000000000000000000000000000000000000815260040162000251919062000a7f565b60405180910390fd5b6200026e600083836200029b60201b60201c565b5050565b620002988162000293620004cb60201b6200051e17620004ec60201b60201c565b60201c565b50565b600073ffffffffffffffffffffffffffffffffffffffff168373ffffffffffffffffffffffffffffffffffffffff1603620002f1578060026000828254620002e4919062000a9c565b92505081905550620003c7565b60008060008573ffffffffffffffffffffffffffffffffffffffff1673ffffffffffffffffffffffffffffffffffffffff1681526020019081526020016000205490508181101562000380578381836040517fe450d38c000000000000000000000000000000000000000000000000000000008152600401620003779392919062000ad7565b60405180910390fd5b8181036000808673ffffffffffffffffffffffffffffffffffffffff1673ffffffffffffffffffffffffffffffffffffffff16815260200190815260200160002081905550505b600073ffffffffffffffffffffffffffffffffffffffff168273ffffffffffffffffffffffffffffffffffffffff16036200041257806002600082825403925050819055506200045f565b806000808473ffffffffffffffffffffffffffffffffffffffff1673ffffffffffffffffffffffffffffffffffffffff168152602001908152602001600020600082825401925050819055505b8173ffffffffffffffffffffffffffffffffffffffff168373ffffffffffffffffffffffffffffffffffffffff167fddf252ad1be2c89b69c2b068fc378daa952ba7f163c4a11628f55a4df523b3ef83604051620004be919062000b14565b60405180910390a3505050565b60006a636f6e736f6c652e6c6f679050600080835160208501845afa505050565b6200050060201b62000b0017819050919050565b6200050a62000b31565b565b600080fd5b6000819050919050565b620005268162000511565b81146200053257600080fd5b50565b60008151905062000546816200051b565b92915050565b6000602082840312156200056557620005646200050c565b5b6000620005758482850162000535565b91505092915050565b600081519050919050565b7f4e487b7100000000000000000000000000000000000000000000000000000000600052604160045260246000fd5b7f4e487b7100000000000000000000000000000000000000000000000000000000600052602260045260246000fd5b600060028204905060018216806200060057607f821691505b602082108103620006165762000615620005b8565b5b50919050565b60008190508160005260206000209050919050565b60006020601f8301049050919050565b600082821b905092915050565b600060088302620006807fffffffffffffffffffffffffffffffffffffffffffffffffffffffffffffffff8262000641565b6200068c868362000641565b95508019841693508086168417925050509392505050565b6000819050919050565b6000620006cf620006c9620006c38462000511565b620006a4565b62000511565b9050919050565b6000819050919050565b620006eb83620006ae565b62000703620006fa82620006d6565b8484546200064e565b825550505050565b600090565b6200071a6200070b565b62000727818484620006e0565b505050565b5b818110156200074f576200074360008262000710565b6001810190506200072d565b5050565b601f8211156200079e5762000768816200061c565b620007738462000631565b8101602085101562000783578190505b6200079b620007928562000631565b8301826200072c565b50505b505050565b600082821c905092915050565b6000620007c360001984600802620007a3565b1980831691505092915050565b6000620007de8383620007b0565b9150826002028217905092915050565b620007f9826200057e565b67ffffffffffffffff81111562000815576200081462000589565b5b620008218254620005e7565b6200082e82828562000753565b600060209050601f83116001811462000866576000841562000851578287015190505b6200085d8582620007d0565b865550620008cd565b601f19841662000876866200061c565b60005b82811015620008a05784890151825560018201915060208501945060208101905062000879565b86831015620008c05784890151620008bc601f891682620007b0565b8355505b6001600288020188555050505b505050505050565b7f4e487b7100000000000000000000000000000000000000000000000000000000600052601160045260246000fd5b6000620009118262000511565b91506200091e8362000511565b92508282026200092e8162000511565b91508282048414831517620009485762000947620008d5565b5b5092915050565b600082825260208201905092915050565b60005b838110156200098057808201518184015260208101905062000963565b60008484015250505050565b6000601f19601f8301169050919050565b6000620009aa826200057e565b620009b681856200094f565b9350620009c881856020860162000960565b620009d3816200098c565b840191505092915050565b620009e98162000511565b82525050565b6000606082019050818103600083015262000a0b81866200099d565b9050818103602083015262000a2181856200099d565b905062000a326040830184620009de565b949350505050565b600073ffffffffffffffffffffffffffffffffffffffff82169050919050565b600062000a678262000a3a565b9050919050565b62000a798162000a5a565b82525050565b600060208201905062000a96600083018462000a6e565b92915050565b600062000aa98262000511565b915062000ab68362000511565b925082820190508082111562000ad15762000ad0620008d5565b5b92915050565b600060608201905062000aee600083018662000a6e565b62000afd6020830185620009de565b62000b0c6040830184620009de565b949350505050565b600060208201905062000b2b6000830184620009de565b92915050565b7f4e487b7100000000000000000000000000000000000000000000000000000000600052605160045260246000fd5b610f758062000b706000396000f3fe608060405234801561001057600080fd5b506004361061009e5760003560e01c80635f515226116100665780635f5152261461015d57806370a082311461018d57806395d89b41146101bd578063a9059cbb146101db578063dd62ed3e1461020b5761009e565b806306fdde03146100a3578063095ea7b3146100c157806318160ddd146100f157806323b872dd1461010f578063313ce5671461013f575b600080fd5b6100ab61023b565b6040516100b89190610b9a565b60405180910390f35b6100db60048036038101906100d69190610c55565b6102cd565b6040516100e89190610cb0565b60405180910390f35b6100f9610346565b6040516101069190610cda565b60405180910390f35b61012960048036038101906101249190610cf5565b610350565b6040516101369190610cb0565b60405180910390f35b61014761037f565b6040516101549190610d64565b60405180910390f35b61017760048036038101906101729190610d7f565b610388565b6040516101849190610cda565b60405180910390f35b6101a760048036038101906101a29190610d7f565b61039a565b6040516101b49190610cda565b60405180910390f35b6101c56103e2565b6040516101d29190610b9a565b60405180910390f35b6101f560048036038101906101f09190610c55565b610474565b6040516102029190610cb0565b60405180910390f35b61022560048036038101906102209190610dac565b610497565b6040516102329190610cda565b60405180910390f35b60606003805461024a90610e1b565b80601f016020809104026020016040519081016040528092919081815260200182805461027690610e1b565b80156102c35780601f10610298576101008083540402835291602001916102c3565b820191906000526020600020905b8154815290600101906020018083116102a657829003601f168201915b5050505050905090565b60008273ffffffffffffffffffffffffffffffffffffffff163373ffffffffffffffffffffffffffffffffffffffff167fec322bab01574aa8eac46c95fc1618829fc01a5a599877d6a6ea80c1c5ccf91a8460405161032c9190610cda565b60405180910390a361033e838361053f565b905092915050565b6000600254905090565b60008061035b610562565b905061036885828561056a565b6103738585856105fe565b60019150509392505050565b60006012905090565b60006103938261039a565b9050919050565b60008060008373ffffffffffffffffffffffffffffffffffffffff1673ffffffffffffffffffffffffffffffffffffffff168152602001908152602001600020549050919050565b6060600480546103f190610e1b565b80601f016020809104026020016040519081016040528092919081815260200182805461041d90610e1b565b801561046a5780601f1061043f5761010080835404028352916020019161046a565b820191906000526020600020905b81548152906001019060200180831161044d57829003601f168201915b5050505050905090565b60008061047f610562565b905061048c8185856105fe565b600191505092915050565b6000600160008473ffffffffffffffffffffffffffffffffffffffff1673ffffffffffffffffffffffffffffffffffffffff16815260200190815260200160002060008373ffffffffffffffffffffffffffffffffffffffff1673ffffffffffffffffffffffffffffffffffffffff16815260200190815260200160002054905092915050565b60006a636f6e736f6c652e6c6f679050600080835160208501845afa505050565b60008061054a610562565b90506105578185856106f2565b600191505092915050565b600033905090565b60006105768484610497565b90507fffffffffffffffffffffffffffffffffffffffffffffffffffffffffffffffff81146105f857818110156105e8578281836040517ffb8f41b20000000000000000000000000000000000000000000000000000000081526004016105df93929190610e5b565b60405180910390fd5b6105f784848484036000610704565b5b50505050565b600073ffffffffffffffffffffffffffffffffffffffff168373ffffffffffffffffffffffffffffffffffffffff16036106705760006040517f96c6fd1e0000000000000000000000000000000000000000000000000000000081526004016106679190610e92565b60405180910390fd5b600073ffffffffffffffffffffffffffffffffffffffff168273ffffffffffffffffffffffffffffffffffffffff16036106e25760006040517fec442f050000000000000000000000000000000000000000000000000000000081526004016106d99190610e92565b60405180910390fd5b6106ed8383836108db565b505050565b6106ff8383836001610704565b505050565b600073ffffffffffffffffffffffffffffffffffffffff168473ffffffffffffffffffffffffffffffffffffffff16036107765760006040517fe602df0500000000000000000000000000000000000000000000000000000000815260040161076d9190610e92565b60405180910390fd5b600073ffffffffffffffffffffffffffffffffffffffff168373ffffffffffffffffffffffffffffffffffffffff16036107e85760006040517f94280d620000000000000000000000000000000000000000000000000000000081526004016107df9190610e92565b60405180910390fd5b81600160008673ffffffffffffffffffffffffffffffffffffffff1673ffffffffffffffffffffffffffffffffffffffff16815260200190815260200160002060008573ffffffffffffffffffffffffffffffffffffffff1673ffffffffffffffffffffffffffffffffffffffff1681526020019081526020016000208190555080156108d5578273ffffffffffffffffffffffffffffffffffffffff168473ffffffffffffffffffffffffffffffffffffffff167f8c5be1e5ebec7d5bd14f71427d1e84f3dd0314c0f7b2291e5b200ac8c7c3b925846040516108cc9190610cda565b60405180910390a35b50505050565b600073ffffffffffffffffffffffffffffffffffffffff168373ffffffffffffffffffffffffffffffffffffffff160361092d5780600260008282546109219190610edc565b92505081905550610a00565b60008060008573ffffffffffffffffffffffffffffffffffffffff1673ffffffffffffffffffffffffffffffffffffffff168152602001908152602001600020549050818110156109b9578381836040517fe450d38c0000000000000000000000000000000000000000000000000000000081526004016109b093929190610e5b565b60405180910390fd5b8181036000808673ffffffffffffffffffffffffffffffffffffffff1673ffffffffffffffffffffffffffffffffffffffff16815260200190815260200160002081905550505b600073ffffffffffffffffffffffffffffffffffffffff168273ffffffffffffffffffffffffffffffffffffffff1603610a495780600260008282540392505081905550610a96565b806000808473ffffffffffffffffffffffffffffffffffffffff1673ffffffffffffffffffffffffffffffffffffffff168152602001908152602001600020600082825401925050819055505b8173ffffffffffffffffffffffffffffffffffffffff168373ffffffffffffffffffffffffffffffffffffffff167fddf252ad1be2c89b69c2b068fc378daa952ba7f163c4a11628f55a4df523b3ef83604051610af39190610cda565b60405180910390a3505050565b610b08610f10565b565b600081519050919050565b600082825260208201905092915050565b60005b83811015610b44578082015181840152602081019050610b29565b60008484015250505050565b6000601f19601f8301169050919050565b6000610b6c82610b0a565b610b768185610b15565b9350610b86818560208601610b26565b610b8f81610b50565b840191505092915050565b60006020820190508181036000830152610bb48184610b61565b905092915050565b600080fd5b600073ffffffffffffffffffffffffffffffffffffffff82169050919050565b6000610bec82610bc1565b9050919050565b610bfc81610be1565b8114610c0757600080fd5b50565b600081359050610c1981610bf3565b92915050565b6000819050919050565b610c3281610c1f565b8114610c3d57600080fd5b50565b600081359050610c4f81610c29565b92915050565b60008060408385031215610c6c57610c6b610bbc565b5b6000610c7a85828601610c0a565b9250506020610c8b85828601610c40565b9150509250929050565b60008115159050919050565b610caa81610c95565b82525050565b6000602082019050610cc56000830184610ca1565b92915050565b610cd481610c1f565b82525050565b6000602082019050610cef6000830184610ccb565b92915050565b600080600060608486031215610d0e57610d0d610bbc565b5b6000610d1c86828701610c0a565b9350506020610d2d86828701610c0a565b9250506040610d3e86828701610c40565b9150509250925092565b600060ff82169050919050565b610d5e81610d48565b82525050565b6000602082019050610d796000830184610d55565b92915050565b600060208284031215610d9557610d94610bbc565b5b6000610da384828501610c0a565b91505092915050565b60008060408385031215610dc357610dc2610bbc565b5b6000610dd185828601610c0a565b9250506020610de285828601610c0a565b9150509250929050565b7f4e487b7100000000000000000000000000000000000000000000000000000000600052602260045260246000fd5b60006002820490506001821680610e3357607f821691505b602082108103610e4657610e45610dec565b5b50919050565b610e5581610be1565b82525050565b6000606082019050610e706000830186610e4c565b610e7d6020830185610ccb565b610e8a6040830184610ccb565b949350505050565b6000602082019050610ea76000830184610e4c565b92915050565b7f4e487b7100000000000000000000000000000000000000000000000000000000600052601160045260246000fd5b6000610ee782610c1f565b9150610ef283610c1f565b9250828201905080821115610f0a57610f09610ead565b5b92915050565b7f4e487b7100000000000000000000000000000000000000000000000000000000600052605160045260246000fdfea2646970667358221220afeeff1826b1dc99f21653ea5b8493ccb6427304bb437f6c2b9f22b378ab5fc464736f6c63430008140033636f6e7374727563746f72203a204d61726b6574546f6b656e2042207769746820696e697469616c20737570706c79206f66f09f92b8f09f92b8f09f92b84d494e542d506c617965722042f09f92b8f09f92b8f09f92b8",
  "linkReferences": {},
  "deployedLinkReferences": {}
}